:020000040800F2
:10000000B8070020D1000008D92B000829260008D5
:1000100000000000000000000000000000000000E0
:100020000000000000000000000000000D2D00088E
:100030000000000000000000552C00080F2D0008F3
:10004000E300000800000000E3000008E3000008EF
:10005000E3000008E3000008E3000008E3000008F4
:100060000000000089010008E3000008E300000828
:10007000E3000008C92D0008E300000800000000AC
:10008000E3000008E3000008E3000008E3000008C4
:10009000E3000008E3000008E3000008E3000008B4
:1000A000E3000008E3000008E3000008E3000008A4
:1000B000E3000008E30000080448854600F052F819
:1000C000004800471D380008C046C046B807002059
:1000D0000448804704480047FEE7FEE7FEE7FEE7E6
:1000E000FEE7FEE7B92D0008B900000830B50B4661
:1000F000014600202022012409E00D46D5409D4202
:1001000005D31D469540491B254695404019154687
:10011000521E002DF1DC30BD70B5002425460028AC
:1001200001DA01244042002901DA01254942FFF7A2
:10013000DDFFAC4200D04042002C00D0494270BDEF
:10014000D2B201E00270401C491EFBD2704700226F
:10015000F6E710B513460A4604461946FFF7F0FFC6
:10016000204610BD064C0125064E05E0E36807CC8D
:100170002B430C3C98471034B442F7D3FFF7A0FF51
:10018000BC380008DC38000810B5024800F0B8FBA5
:1001900010BD00007400002070B5044621780846A8
:1001A00008381421FFF7A2FF0546206C8008800064
:1001B00005494018606404488030A0641C20284031
:1001C00001218140E16470BD0008024001794A1EAE
:1001D0009200064BD2180265044A403242654A1E1C
:1001E00093079B0F01229A408265704700090240E5
:1001F00070470000F0B585B005460C46002003901E
:1002000002900121C9072869884203D0091D286985
:10021000884200D100E000BF00BF5420405D0128AB
:1002200002D1022005B0F0BD01215420415500BF8C
:10023000286802F010FA002876D16068022874D08D
:100240000121C9072869884203D0091D286988420D
:1002500008D128682168826A4B035B0B1A438262CB
:1002600000BFC6E02179CA06D20E0F219140286E48
:10027000884321684903490B002905D11F229206B2
:1002800021681140890E92E02178C907C90F002921
:1002900001D000218BE0022221681140022901D106
:1002A000012184E0042221681140042901D10221A6
:1002B0007DE0082221681140082901D1032176E060
:1002C000102221681140102901D104216FE0202261
:1002D00021681140202901D1052168E040222168D0
:1002E0001140402901D1062161E08022216811409E
:1002F000802901D107215AE0FF22013221681140F3
:10030000914201D1082152E001225202216811409C
:10031000914201D109214AE0012292022168114053
:10032000914203D10A2142E0F7E0B7E00122D20274
:1003300021681140914201D10B2138E001221203C2
:1003400021681140914201D10C2130E00122520379
:1003500021681140914201D10D2128E00122920330
:1003600021681140914201D10E2120E00122D203E7
:1003700021681140914201D10F2118E0012212049D
:1003800021681140914201D1102110E00122520454
:1003900021681140914201D1112108E0012292040B
:1003A00021681140914201D1122100E000212279FF
:1003B000D206D20E91400843286660688008401C2F
:1003C000E969884215D82868226861680192836AC1
:1003D000CF06FF0E0F22BA4093430F27BF06019AA4
:1003E0003A40920ECF06FF0EBA401343836200BF1D
:1003F00000BF286821680091A168019142690099B5
:1004000009028A4300990B024A4F019939400B4077
:100410001A43426100BF2068C00FC00700281ED0E9
:10042000454802F003F9064644492068884217D13E
:10043000C0023040002813D1C802304301463E4874
:1004400002F00FF93E493F480068FFF74FFE029067
:1004500002E00298401E029002980028F9D162E062
:100460003949206888420AD180023040002806D1EC
:10047000880230430146304802F0F3F853E0334934
:10048000206888424FD14002304000284BD14802BA
:1004900030430146284802F0E4F844E00121C9074E
:1004A0002869884203D0091D2869884208D1286834
:1004B0002168826A4B035B0B9A43826200BF00BFD4
:1004C0002068C00FC00700282DD01B4802F0AEF8EE
:1004D00006461A492068884207D1C2023046904336
:1004E0000146154802F0BDF81DE017492068884212
:1004F00007D182023046904301460F4802F0B1F81E
:1005000011E01249206888420DD1420230469043E2
:100510000146094802F0A5F805E0A86D202108432E
:10052000A8650120039000BF00215420415500BF61
:10053000039877E600FFFF0708270140001000B08E
:10054000400D03000C000020004000B8002000B463
:10055000FEB5044600200190002500260090002CE6
:1005600001D10120FEBD2069002805D001214905E7
:100570002069884200D100BFA06D002807D1204625
:1005800000F042F90020E065002154200155206868
:1005900002F05AF8002816D120688168924A11406A
:1005A000012212071143816000BF90499048006802
:1005B000FFF79CFD4000009002E00098401E009074
:1005C00000980028F9D1206802F03EF8002809D1EF
:1005D000A06D10210843A065E06D01210843E0658E
:1005E00001200190206802F036F80746A06D102126
:1005F000084000287ED1002FFCD1A06D090188435E
:1006000002210843A065206802F016F800282AD1CC
:100610002068C06818218843A16808432168C86021
:1006200020680069800080086168890F8907084395
:1006300021680861032189076068884213D0494214
:10064000606888420FD04900606888420BD06948D2
:1006500080680F21890488430F2292046168114049
:10066000084364498860207E8003617EC903084393
:10067000A17E49030843216B002902D0012109030F
:1006800000E000210843E16808432169C90FC90758
:10069000002903D021694900490801E001214905E9
:1006A00008432C21095D4900084305432020005DD3
:1006B00001280ED1A07E002803D1012000040543AB
:1006C00007E0A06D20210843A065E06D01210843EB
:1006D000E065606A002806D0FF21C131606A0840E9
:1006E000A16A08430543216C606C0843A16C084370
:1006F000E16C00E070E0084306433C20005D012807
:1007000000D106432068C0683B490840284321685F
:10071000C860206800693949084030432168086191
:100720000021626B206801F0A3FF3549A26B2068AD
:1007300001F09EFF2069002807D12068806A0F2100
:10074000C9430843216888622AE0012149052069DC
:10075000884225D1002008E08200216ED14009079F
:10076000090F0F2900D102E0401C0828F4D300BF74
:10077000012807D12168896A0F22D24311432268D8
:1007800091620CE0217F491E4907CA0E0F21C9431F
:100790009140226E11432268926A2268916200BFE2
:1007A0002068C06817490840A84208D10020E065C9
:1007B000A06D0221884301210843A06512E0A06DCD
:1007C0000221884310210843A065E06D0121084300
:1007D000E0650120019005E0A06D10210843A065AF
:1007E000012001900198BDE6E8FFFF7F400D030066
:1007F0000C000020002701401902FEFF02FCFFDF71
:1008000004FFFF07E7FF3F8310B586B004461421BD
:1008100001A8FFF79CFC34492068884261D100BFE1
:10082000324800680121090508433049086008463C
:100830000068012109050840009000BF00BF00BF0B
:100840002A484038406B0121084328494039486311
:100850000846406BC007C00F009000BF00BF00BF3C
:100860000846406B02210843204940394863084646
:10087000406B02210840009000BF00BFF8200190AB
:10088000032002900020039001A90520000700F03A
:1008900025F917480190032002900020039001A938
:1008A000144800F01BF914481449086005204860FA
:1008B000002112488160C16080210161890041618D
:1008C000890081612021C1610902016200F0A8F85C
:1008D000002801D0FFF78CFC00BF08482065846227
:1008E00000BF06B010BD00000024014040100240CF
:1008F00007040000000400500800024074000020BB
:1009000070B5044645480568206806681C20216CBF
:100910000140042088402840002820D00420304096
:1009200000281CD02068006820210840002805D13C
:1009300020680068042188432168086037484068BF
:100940001C22216C114004228A4010433349486024
:10095000206B002860D02046216B88475CE01C207B
:10096000216C0140022088402840002828D0022025
:100970003040002824D0206800682021084000284A
:1009800008D1206800680A21884321680860012195
:1009900025200155214841681C22206C104002226C
:1009A000824011431D48416000BF002124200155B1
:1009B00000BFE06A00282FD02046E16A88472BE07C
:1009C0001C20216C0140082088402840002823D0AA
:1009D0000820304000281FD0206800680E2188437E
:1009E000216808600D4841681C22206C10400122DB
:1009F00082401143094841600120E0630121252024
:100A0000015500BF00212420015500BF606B002864
:100A100002D02046616B884770BD00000000024094
:100A200010B50446002C01D1012010BD294A2168CF
:100A3000881A1421FFF75AFB800020640221252028
:100A40000155206800682449084021680860E16871
:100A5000A06808432169084361690843A169084304
:100A6000E1690843216A084321680968084321684D
:100A700008602046FFF790FB01218903A0688842A7
:100A800001D1002060602079616C0860A16CE06C8D
:100A90004860606800280CD06068042809D82046A7
:100AA000FFF794FB0020216D0860616DA06D486028
:100AB00003E0002020656065A0650020E06301215F
:100AC0002520015500BF00212420015500BF002032
:100AD000ABE70000080002400F80FFFF70B503463F
:100AE0000022D5E0012696400C683440002C71D0DD
:100AF0004D68022D02D04D68122D15D1D508AE00DB
:100B00001D462035A8595507EE0E0F25B54006465F
:100B1000AE4330465607F60E0D69B5402843D5085A
:100B2000AD001E4620367051186856000325B540AA
:100B30000646AE4330460D79AD07AD0F5600B540C1
:100B4000284318604D68012D08D04D68022D05D04E
:100B50004D68112D02D04D68122D18D1986856009D
:100B60000325B5400646AE4330465600CD68B54035
:100B7000284398605868012595400646AE433046A4
:100B800010264D6835402D09954028435860D86897
:100B900056000325B5400646AE43304656008D68E4
:100BA000B5402843D860012636074D683540B54228
:100BB0006DD13A4D9608B600A8599507EE0E0F254F
:100BC000B5400646AE43304605252D07AB4202D15F
:100BD000002510E05BE0324DAB4201D101250AE077
:100BE000304DAB4201D1022505E02F4DAB4201D182
:100BF000032500E005259607F60EB5402843274D4E
:100C00009608B600A851254D203528680546A5430D
:100C10002846012636044D683540B54202D10546C6
:100C2000254328461D4D2035286068680546A543A4
:100C30002846012676044D683540B54202D1054666
:100C400025432846154D20356860144D603D2868C1
:100C50000546A5432846012636054D683540B54270
:100C600002D10546254328460C4D603D2860686842
:100C70000546A5432846012676054D683540B54210
:100C800002D1054625432846044D603D6860521C4C
:100C90000D68D540002D00D024E770BD60180240DB
:100CA0000004005000080050000C005042690A4047
:100CB000002A01D0816200E081617047002A01D0E2
:100CC000816100E081627047014800687047000060
:100CD0000000002002464120805C20282FD100BF68
:100CE0004020805C012801D1022070470123402070
:100CF000835400BF242341208354106800684008B7
:100D00004000136818601068006801231B039843B3
:100D1000136818601068006808431368186010684A
:100D2000006801231843136818602023412083546E
:100D300000BF00234020835400BF0020D5E70220DD
:100D4000D3E710B502460B464120805C20282ED107
:100D500000BF4020805C012801D1022010BD012489
:100D60004020845400BF242441208454106800682B
:100D70004008400014682060106801680F242402B5
:100D80000846A0430146180201431068016010683C
:100D900000680124204314682060202441208454EA
:100DA00000BF00244020845400BF0020D6E702206A
:100DB000D4E7000010B50446002C01D1012010BD7D
:100DC0004120005D002805D100214020015520462A
:100DD00000F05AF82421412001552068006840089D
:100DE0004000216808600F21090660688843216877
:100DF0000861206880680121C903884321688860F0
:100E0000E068012806D10121C903A06808432168D0
:100E1000886005E021218902A06808432168886074
:100E2000E068022802D1800221684860206840689A
:100E300014490843216848602068C0680121C9033B
:100E400088432168C860616920690843A169090273
:100E500008432168C860216AE06908432168086086
:100E60002068006801210843216808600020606450
:100E700020214120015500202063002142200155FE
:100E800000209CE70080000210B586B004461421C3
:100E900001A8FFF75CF91949206888422CD100BFEE
:100EA0001748406B02210843154948630846406BC8
:100EB00002210840009000BF00BF0520C002019041
:100EC000122002900120039000200490062005903B
:100ED00001A90C48FFF702FE00BF0948C06B0121C1
:100EE000890508430649C8630846C06B0121890586
:100EF0000840009000BF00BF06B010BD0058004081
:100F000000100240000400500348006803490968CB
:100F100040180149086070470000002008000020C8
:100F200010B5002408480068FF2101310843064934
:100F30000860002000F00AF8002801D0012401E038
:100F400000F034F8204610BD00200240F8B50446F9
:100F500000251348006800281ED0114801687D2034
:100F6000C000FFF7C3F8074639460E480068FFF790
:100F7000BDF8064600F0C0FE00280BD1042C07D2B5
:100F800000222146401E00F03FF80748046004E0BC
:100F9000012502E0012500E001252846F8BD0000FA
:100FA000080000200C0000200400002008B500BF4D
:100FB0000E480068012108430C4908600846006893
:100FC000C007C00F009000BF00BF00BF07484038F7
:100FD000C06B8905084305494039C8630846C06BA2
:100FE00009040840009000BF00BF08BD4010024047
:100FF00000BFC206D20E01219140024A116000BF1B
:101000007047000000E100E070B504460D4616464A
:101010002946204601F0E2FD70BD000070B504468F
:101020001148006803214902884320430E490860A3
:101030004815844216D10D490968062251430846D5
:101040000B49FFF753F8451C05E0002D01D06D1E3C
:1010500001E0032070BD0448406901218902084075
:101060008842F2D00020F5E7007000400C0000201C
:1010700040420F00FEB504460027002002900121E7
:1010800049042068084088427BD1002001907748BD
:10109000C06BC902084000280ED100BF7348C06B66
:1010A00008437249C8630846C06B090408400090B1
:1010B00000BF00BF012001906D480068FF21013191
:1010C00008436B490860FFF7FFFD064606E0FFF79F
:1010D000FBFD801B022801D9032706E06448006855
:1010E000FF21013108400028F1D000BF002F4BD173
:1010F0005E484030C569032109020D40002D1AD019
:10110000A069A84217D059484030C06988430546B5
:1011100056484030C0690121090408435349403111
:10112000C8610846C0690121090488434F4940311C
:10113000C8610846C561E807C00F002813D0FFF753
:10114000C3FD064607E0FFF7BFFD801B4949884203
:1011500001D9032706E045484030C0690221084014
:101160000028F0D000BF002F0CD140484030C069AB
:10117000032109028843A16908433C494031C86101
:1011800003E00DE0029700E002970198012806D1E4
:101190003648C06B0121090788433449C86300BF42
:1011A0002078C007C00F002809D03048403040697F
:1011B00080088000616808432C4940314861022161
:1011C00020680840022809D12848403040690C2195
:1011D0008843A1680843254940314861402120687F
:1011E000084040280AD121484030406903210903C2
:1011F0008843E16808431D49403148610121890362
:1012000020680840884213D1184840304069800067
:1012100080086169084315494031486109066069E1
:10122000884205D11148C068891308430F49C86036
:101230000121C90220680840884215D10B4840307E
:1012400040690321890388432169084307494031E4
:101250004861012189032069884205D10348C0689B
:10126000890008430149C8600298FEBD0010024091
:10127000007000408813000070B504460D46002C35
:1012800001D1012070BD6B4800684007400FA842A3
:1012900018D268480068C008C00028436549086043
:1012A000FFF712FD064607E0FFF70EFD801B6249BF
:1012B000884201D90320E5E75E4800684007400FF7
:1012C000A842F1D1022120680840022815D104214A
:1012D00020680840042807D158488068072109037E
:1012E0008843401855498860544880680F21090296
:1012F0008843A1680843514988602078C007C00F1F
:10130000002854D06068012808D14C4800680121A9
:101310004904084000282ED10120B3E76068022864
:1013200008D146480068012149060840002822D11A
:101330000120A7E76068002808D140480068012123
:1013400089020840002816D101209BE76068032825
:1013500008D13A484030006A0221084000280AD1EA
:1013600001208FE735484030C0690221084000283D
:1013700001D1012086E731488068C008C00061685B
:1013800008432E498860FFF79FFC064607E0FFF7F9
:101390009BFC801B2849884201D9032072E727481B
:1013A0008068382108406168C9008842EFD121482F
:1013B00000684007400FA84218D91E480068C008BE
:1013C000C00028431B490860FFF77EFC064607E083
:1013D000FFF77AFC801B1849884201D9032051E7A6
:1013E000144800684007400FA842F1D1042120684A
:1013F0000840042808D11148806807210903884360
:10140000E16808430D49886000F03AF80B498968A3
:101410000F2212021140090A8900094A515CC906CB
:10142000C90EC8400749086007480068FFF78EFDED
:1014300028E700000020024088130000001002404E
:101440005C3800080C0000200400002001480068FF
:10145000704700000C00002000B5FFF7F7FF0649B9
:101460008968072212031140090B8900034A515C65
:10147000C906C90EC84000BD001002409C380008D3
:10148000FEB5354880683821084000280DD1324823
:10149000006809020840C10A0120884000902F48D6
:1014A0000099FEF723FE044654E02B48806838215B
:1014B0000840082801D12A4C4CE027488068382190
:1014C0000840102834D12448C0688607B60F224847
:1014D000C068702108400009401C0190022E0FD006
:1014E000032E0CD11E480199FEF700FE1A49C96867
:1014F0007F2212021140090A484305460DE000BF51
:1015000016480199FEF7F2FD1349C9687F221202BD
:101510001140090A4843054600BF00BF0E48C06895
:10152000400F471C39462846FEF7E0FD044611E00F
:101530000948806838210840202801D1840209E048
:101540000548806838210840182802D17D242402EB
:1015500000E000242046FEBD001002400024F400FC
:1015600000127A00FEB50446002C01D10120FEBD18
:101570002078C007C00F00286FD0F748876838214F
:101580000F40C0688607B60F102F01D1032E01D07F
:10159000082F0BD1F04800680121490408400028B9
:1015A0005BD06068002858D10120E0E700BF01212E
:1015B00009046068884205D1E74800680843E649A5
:1015C000086021E005210904606888420ED1E248E4
:1015D0000068012189040843DF4908600846006863
:1015E000012109040843DC4908600DE0DA4800687D
:1015F000012109048843D849086008460068012190
:1016000089048843D449086000BF6068002812D06C
:10161000FFF75AFB054606E0FFF756FB401B642820
:1016200001D90320A3E7CC48006801214904084000
:101630000028F1D011E0FFF747FB054606E0FFF771
:1016400043FB401B642801D9032090E7C24800688F
:101650000121490408400028F1D1022120680840F6
:10166000022873D1BC488068382108400746BA4830
:10167000C0688607B60F102F01D1022E01D0002FAF
:1016800036D1B5480068012189020840002804D0FD
:10169000E068002801D1012069E7AF4840687F2158
:1016A00009028843616909020843AB494860002F79
:1016B00016D1084600680721C902884321690843FA
:1016C000A5490860084600680722D2021040C20AF5
:1016D000012090400146A148FEF708FDA04908609E
:1016E000A0480068FFF732FC002849D001203EE7FF
:1016F000E06800282BD0984800680721C902884379
:101700002169084394490860084600688915084320
:1017100091490860FFF7D8FA054606E0FFF7D4FACA
:10172000401B022801D9032021E78B4800680121D2
:10173000890208400028F1D0874840687F210902CB
:1017400088436169090208438349486018E0824878
:101750000068FF21013188437F490860FFF7B4FA30
:10176000054606E0FFF7B0FA401B022801D9032026
:10177000FDE6794800680121890208400028F1D17E
:10178000082120680840082849D17348806838211A
:10179000084018280BD170484030006A02210840E8
:1017A00000283CD0A069002839D10120DFE6A069DB
:1017B00000281AD068484030006A01210843664971
:1017C00040310862FFF780FA054606E0FFF77CFA31
:1017D000401B022801D90320C9E65F484030006A57
:1017E000022108400028F1D019E05B484030006A2F
:1017F00040084000584940310862FFF765FA054645
:1018000006E0FFF761FA401B022801D90320AEE68B
:1018100051484030006A022108400028F1D10421DB
:101820002068084004287CD1002001904A48806844
:101830003821084020280BD147484030C069022198
:10184000084000286ED0A06800286BD101208EE6E9
:101850004148C06B010F01208843002810D000BF11
:101860003D48C06B0121090708433B49C86308464E
:10187000C06B09040840009000BF00BF0120019028
:1018800039480068FF2101310840002816D1364848
:101890000068084334490860FFF716FA054606E079
:1018A000FFF712FA401B022801D903205FE62E48F9
:1018B0000068FF21013108400028F1D000BFA06876
:1018C000012808D124484030C06901210843224939
:1018D0004031C86120E0A06805280FD11E48403083
:1018E000C069042108431C494031C8610846C069E9
:1018F0000121084318494031C8610DE016484030C5
:10190000C0694108490014484030C161C0690421E0
:10191000884311494031C86100BFA068002816D033
:1019200001E040E03EE0FFF7CFF9054607E0FFF7B2
:10193000CBF9401B0D49884201D9032017E6064820
:101940004030C069022108400028F0D01EE0FFF7B7
:10195000BBF9054614E00000001002400024F4002A
:101960000C000020040000200070004088130000DC
:10197000FFF7AAF9401B6449884201D90320F6E524
:101980006248C069022108400028F1D1019801286D
:1019900008D15E484038C06B0121090788435B4984
:1019A0004039C86300BFE06900285AD05748403822
:1019B00080683821084010287ED0E069022851D183
:1019C0005248403800680121090688434F49403990
:1019D0000860FFF779F9054606E0FFF775F9401B47
:1019E000022801D90320C2E5484840380068012197
:1019F000490608400028F0D1616A206A0843A16ABC
:101A000009020843E16A0843216B08433F49403912
:101A1000C9683F4A114008433C494039C8600846FC
:101A20000068012109060843384940390860084622
:101A3000C0680904084335494039C860FFF744F9D4
:101A4000054606E0FFF740F9401B022801D90320B4
:101A50008DE52E48403800680121490608400028DD
:101A6000F0D04EE02948403800680121090688433B
:101A70002649403908600846C06880088000C86070
:101A80000846C0682349084020494039C860FFF72C
:101A90001BF9054607E0FFF717F9401B022802D99A
:101AA000032064E508E01948403800680121490630
:101AB00008400028EFD124E0E069012800D156E574
:101AC00012484038C668B107890F206A814216D192
:101AD00070203040616A884211D17F20000230407E
:101AE000A16A090288420AD11F2040043040E16AFD
:101AF000884204D1710F4907206B814201D0012037
:101B000035E5002033E50000881300004010024056
:101B10008C80C11FFFFFFEEFFFB581B004460D466C
:101B20001646002C02D1012005B0F0BD80200059DE
:101B3000002805D100217C200155204600F06EFCD4
:101B4000242180200151206800684008400021685D
:101B50000860204601F0D0FA012800D1E4E7A06A2D
:101B6000002802D0204601F015FA20688068012183
:101B70008903084321688860206880680121C903BF
:101B80008843284321688860770504980004074348
:101B900020680068074908403843216808602068C9
:101BA00000680121084321680860204601F06AFAB4
:101BB000BAE70000FFFF00FC70B504460125002CC9
:101BC00057D02920005D002808D100212820015588
:101BD0001120C0026060204600F050F80221292048
:101BE000015500BFCA20216848625320216848621D
:101BF00000BF204601F02FF80546002D2FD12068A8
:101C000080691D490840216888616169A0680843AE
:101C1000E16908432168896908432168886121686E
:101C20002069086120680069A189090408432168C6
:101C30000861204601F038F80546002D0FD12068D4
:101C40008069C000C00821688861216A606A084311
:101C5000A16908432168896908432168886100BF38
:101C6000FF202168486200BF002D02D101212920F8
:101C70000155284670BD0000BFFF8FFB08B50D4A17
:101C80000168914215D10C49C969D21311430A4A1E
:101C9000D16100BF08494039C96B12151143064A8A
:101CA000403AD1631146C96B12151140009100BF33
:101CB00000BF08BD002800404010024070B5044637
:101CC0002068C068A02188432168C860FEF7FCFF37
:101CD000054608E0FEF7F8FF401B7D21C900884259
:101CE00001D9032070BD2068C06820210840002869
:101CF000F0D00020F6E7000070B504462546681EC7
:101D00000949884201D901200CE0681E0749486151
:101D10000321081F00F062FF0020044988610720AA
:101D20000861002070BD0000FFFFFF0000E000E040
:101D3000704770477047000010B50346002200BF8F
:101D40003C20C05C012801D1022010BD01243C20B0
:101D5000C45400BF100A0002CC682043024610465B
:101D600003242402A0438C68204302461046012429
:101D7000A402A0434C682043024610460124E4021A
:101D8000A0430C6820430246104601242403A043CC
:101D90000C6920430246104601246403A0434C69A9
:101DA0002043024610460124A403A0430C6B2043A9
:101DB000024610460F242404A0430C8B2404204325
:101DC00002461C4C1868A04206D110460124240784
:101DD000A043CC6920430246164C1868A04220D18B
:101DE00010460F242405A0430C8D240520430246F1
:101DF000104601242406A0430C6A204302461046E4
:101E000001246406A0434C6A20430246094C18682A
:101E1000A04206D1104601246407A043CC6A2043A7
:101E200002461868426400BF00243C20C45400BF2E
:101E300000208AE7002C014030B502460B4600BF67
:101E40003C20805C012801D1022030BD01253C20CE
:101E5000855400BF02253D208554106841681068F4
:101E60008468124D1068A84206D10F252D0508463A
:101E7000A84301465868014370250846A843014617
:101E80001868014380252046A84304469868044307
:101E9000106841601068846001253D20855400BFB2
:101EA00000253C20855400BF0020CEE7002C0140D7
:101EB00010B50446002C01D1012010BD3D20005D6D
:101EC000002805D100213C200155204600F00CF8E7
:101ED00002213D200155211D206800F07DFF0121D8
:101EE0003D2001550020E8E738B504460D4920683B
:101EF000884215D100BF0C480068C91408430A493C
:101F0000086008460068C9140840009000BF00BF80
:101F1000002211460D20FFF777F80D20FFF768F833
:101F200038BD0000002C0140401002400146086806
:101F3000C068012318430B68D86008688068084BA4
:101F400018400246062A08D0D81F824205D00868E9
:101F50000068012318430B681860002070470000D8
:101F600007000100F8B504460D4600BF3C20005DA7
:101F7000012801D10220F8BD01213C20015500BFFC
:101F800002213D2001552068866839480640FF211E
:101F90000902304688430646206886602868502833
:101FA00034D00CDC202851D004DC00284CD0102880
:101FB00052D14AE030284AD040284DD13AE060283A
:101FC0002ED0702807D001210903401A02D0401AF0
:101FD00042D10DE041E0EB686A68A968206800F032
:101FE0004BFF20688668772006432068866034E0CF
:101FF000EB686A68A968206800F03EFF2068806886
:102000000121890308432168886026E0EA6869683D
:10201000206800F04BFF5021206800F03BFF1CE0DF
:10202000EA686968206800F05AFF6021206800F0C3
:1020300031FF12E0EA686968206800F037FF40214C
:10204000206800F027FF08E000BF00BF00BF29683C
:10205000206800F01FFF00E000BF00BF01213D200D
:10206000015500BF00213C20015500BF002082E740
:1020700088FFCEFF7047000010B504462068006955
:1020800002210840400800281CD02068C068084091
:102090004008002816D0481F2168086101202077D9
:1020A000206880698007800F002803D02046FFF752
:1020B000E1FF05E0204600F0DBF8204600F0D9F80B
:1020C000002020772068006904210840800800284B
:1020D0001DD02068C06808408008002817D0C84379
:1020E00021680861022020772068806903210902A5
:1020F0000840002803D02046FFF7BCFF05E020463B
:1021000000F0B6F8204600F0B4F8002020772068F0
:10211000006908210840C00800281CD02068C06859
:102120000840C008002816D0C84321680861042070
:1021300020772068C0698007800F002803D02046E0
:10214000FFF798FF05E0204600F092F8204600F0E7
:1021500090F80020207720680069102108400009CD
:1021600000281DD02068C06808400009002817D04A
:10217000C84321680861082020772068C0690321CE
:1021800009020840002803D02046FFF773FF05E04E
:10219000204600F06DF8204600F06BF80020207714
:1021A00020680069C007C00F01214840484000284E
:1021B0000CD02068C068084048404840002805D03E
:1021C000C81E21680861204600F054F820680069A4
:1021D00080210840C00900280BD02068C068084052
:1021E000C009002805D0C843216808612046FFF7D0
:1021F000A0FD20680069FF2101310840000A002885
:102200000CD02068C06880210840C009002805D093
:102210001648216808612046FFF78AFD206800699A
:1022200040210840800900280BD02068C068084081
:102230008009002805D0C84321680861204600F0C5
:1022400021F82068006920210840400900280BD0AF
:102250002068C06808404009002805D0C8432168AC
:1022600008612046FFF766FD10BD0000FFFEFFFF7E
:102270007047704710B50446012105200007FEF79E
:1022800015FD10BD7047014600BF7C20405C012851
:1022900001D10220704701237C20435400BF242336
:1022A00080204350086802680868006840084000C1
:1022B0000B68186001235B07104698430246002014
:1022C00048660868026020238020435000BF002336
:1022D0007C20435400BF0020DCE770B504460D4667
:1022E00000BF7C20005D012801D1022070BD0121CA
:1022F0007C20015500BF2421802001512068066800
:1023000020680068400840002168086020688068F4
:10231000072149068843284321688860204600F049
:10232000F7FD2068066020218020015100BF0021B8
:102330007C20015500BF0020D8E770B504460D464B
:1023400000BF7C20005D012801D1022070BD012169
:102350007C20015500BF242180200151206806689F
:102360002068006840084000216808602068806894
:10237000C000C008284321688860204600F0C8FDDE
:102380002068066020218020015100BF00217C20B0
:10239000015500BF0020D9E710B50446002C01D13B
:1023A000012010BDA069002800D000E000BF8020FF
:1023B0000059002805D100217C200155204600F05D
:1023C0002DF8242180200151206800684008400039
:1023D00021680860204600F08FFE012800D1E0E768
:1023E000A06A002802D0204600F0D4FD2068406892
:1023F0000921C902884321684860206880682A2131
:1024000088432168886020680068012108432168AA
:102410000860204600F036FEC3E7000010B586B025
:102420000446142101A8FDF792FE784920688842ED
:102430002FD100BF76480068012189030843744901
:10244000086008460068012189030840009000BF29
:1024500000BF00BF6E484038406B012108436C4903
:10246000403948630846406BC007C00F009000BF6A
:1024700000BF032040020190022002900020039040
:1024800004900120059001A905200007FEF726FB16
:10249000B9E060492068884230D100BF5C484038CC
:1024A000C06B01214904084359494039C8630846B3
:1024B000C06B012149040840009000BF00BF00BF6D
:1024C00053484038406B0121084351494039486323
:1024D0000846406BC007C00F009000BF00BFC81384
:1024E00001900220029000200390049001200590AA
:1024F00001A905200007FEF7F1FA84E046492068AB
:1025000088424CD100BF42484038C06B0121890449
:1025100008433F494039C8630846C06B012189041C
:102520000840009000BF00BF00BF39484038406BF2
:10253000042108433649403948630846406B04216A
:102540000840009000BF00BF00BF31484038406BDA
:10255000022108432E49403948630846406B022156
:102560000840009000BF00BF302001900220029080
:10257000002003900490059001A92848FEF7AEFAC8
:10258000012080030190022002900020039004901B
:102590000420059001A92248FEF7A0FA33E0214962
:1025A000206888422FD100BF19484038C06B0121F4
:1025B000C904084316494039C8630846C06B012165
:1025C000C9040840009000BF00BF00BF1048403859
:1025D000406B012108430E49403948630846406B6F
:1025E000C007C00F009000BF00BF03200190022071
:1025F00002900020039004900420059001A905207A
:102600000007FEF76BFA06B010BD0000003801406D
:1026100040100240004400400048004000080050C4
:1026200000040050004C004000BFFEE7014608686F
:10263000072292051040704701468868C007C00F06
:10264000012250405040704701468868012212071D
:102650001040000F7047014688680422104080082F
:102660007047026807239B059A430A43026070473C
:1026700030B5436904240D4625400724AC40A343EC
:1026800004240C401546A5402B43436130BD000097
:102690000EB500200090019002901E481E4908606F
:1026A00003208004486000211B488160C1600161F3
:1026B0000821416100210176417681760121C161C5
:1026C0000021001D017701218902001F4162816202
:1026D00000212430017224380163032141638163A6
:1026E0000021243001762438C164FDF731FF002831
:1026F00001D0FDF77DFD0948009000200190029077
:1027000069460548FDF776FD002801D0FDF770FD0C
:102710000EBD000000240140100000200800000C45
:1027200008B500BF0A48806B012108430849886347
:102730000846806BC007C00F009000BF00BF00229A
:1027400011460920FEF760FC0920FEF751FC08BD88
:102750000010024000B587B0142102A8FDF7F7FC75
:1027600000BF6A48406B0421084368494863084633
:10277000406B04210840019000BF00BF00BF6348C8
:10278000406B20210843614948630846406B202183
:102790000840019000BF00BF00BF5C48406B0121B2
:1027A00008435A4948630846406BC007C00F019070
:1027B00000BF00BF00BF0846406B022108435349D9
:1027C00048630846406B02210840019000BF00BFEB
:1027D00000BF4E48406B082108434C4948630846F7
:1027E000406B08210840019000BF00BF002248490B
:1027F0004848FEF763FA002247494848FEF75EFA68
:1028000000220321C90205200007FEF757FA002223
:102810007F21C9004248FEF751FA0720C00202900A
:10282000032003900020049002A93A48FEF756F9CD
:1028300004200290032003900020049002A939484C
:10284000FEF74CF9324802900120039000200490DA
:10285000059002A92F48FEF741F9CE2002900020F2
:102860000390049002A92B48FEF738F901200003D9
:102870000290032003900020049002A92848FEF74C
:102880002DF90120C003029000200390049002A9BA
:102890002348FEF723F9FF20013002900020039027
:1028A000049002A905200007FEF718F9FF20013067
:1028B000029000200390049002A91848FEF70EF938
:1028C000154802900120039000200490059002A971
:1028D0001248FEF703F90320C00202900120039082
:1028E00000200490059002A905200007FEF7F6F8E5
:1028F0007F20C000029001200390002004900590EA
:1029000002A90748FEF7EAF807B000BD0010024030
:1029100001070000000800507F020000000C00507A
:10292000000400500014005010B51348134908600B
:10293000134848600021114881600121C1600021D5
:10294000016141618161C1610162FEF733FA0028D2
:1029500001D0FDF74DFC00210848FEF7BBF9002827
:1029600001D0FDF745FC00210448FEF7EAF90028F4
:1029700001D0FDF73DFC10BD00580040D000002004
:102980007321600010B50D480D4908600020886073
:102990007F210B48C160FF210161002141618161FC
:1029A000C16101218907016200214162FFF704F939
:1029B000002801D0FDF71CFC10BD000000280040DD
:1029C0001C01002000B595B00020119012901390CA
:1029D00014900E900F901090342101A8FDF7B7FBD2
:1029E0001C481D4908603F20486000211A4881604A
:1029F000FF21F431C1600021016141618161FFF774
:102A000057FA002801D0FDF7F3FB012000031190D5
:102A100011A91148FFF7A6FA002801D0FDF7E8FB3D
:102A200000200E900F9010900EA90B48FFF704FAAB
:102A3000002801D0FDF7DCFB002008900C9001A9D4
:102A40000548FFF779F9002801D0FDF7D1FB15B053
:102A500000BD0000002C01404801002010B51A48BC
:102A60001A490860E12040024860C10417488160AB
:102A70000021C16001610C21416100218161C161BE
:102A8000016241620020114988620846FFF784FC18
:102A9000002801D0FDF7ACFB00210C48FFF74DFCEE
:102AA000002801D0FDF7A4FB00210848FFF715FC22
:102AB000002801D0FDF79CFB0448FFF7E4FB002849
:102AC00001D0FDF795FB10BD0038014088010020C2
:102AD00010B51A481A490860E12040024860C10454
:102AE000174881600021C16001610C214161002112
:102AF0008161C1610162416200201149886208461A
:102B0000FFF74AFC002801D0FDF772FB00210C48BA
:102B1000FFF713FC002801D0FDF76AFB00210848ED
:102B2000FFF7DBFB002801D0FDF762FB0448FFF74D
:102B3000AAFB002801D0FDF75BFB10BD004400405C
:102B40001402002010B5104810490860E12040022E
:102B50004860C1040D4881600021C16001610C2101
:102B6000416100218161C161016241620020074928
:102B7000886200231A4619460448FEF7CDFF002854
:102B800001D0FDF735FB10BD00480040A002002039
:102B900010B50F480F490860E12040024860C104A9
:102BA0000C4881600021C16001610C21416100215C
:102BB0008161C16101624162002006498862084664
:102BC000FFF7EAFB002801D0FDF712FB10BD000063
:102BD000004C00402C0300207047000010B5002876
:102BE00019DA1A4A03071B0F083B9B089B00D258AF
:102BF0008307DC0EFF23A3409A438B071B0E840739
:102C0000E40EA3401A43114B0407240F083CA40808
:102C1000A4001A5118E00E4A03231B02D21883089D
:102C20009B00D2588307DC0EFF23A3409A438B07F7
:102C30001B0E8407E40EA3401A43054B0324240211
:102C40001B198408A4001A5110BD00001CED00E0FF
:102C500000E100E0704770B5044600262068C068B7
:102C60004021084000281CD12068C068802108430A
:102C70002168C860FEF728F805460AE0FEF724F848
:102C8000401B7D21C900884203D903260321292046
:102C900001552068C06840210840002801D1032E5A
:102CA000ECD1304670BD000070B5044600251648D2
:102CB000C068802188431449C86008468069202183
:102CC0000840002809D12046FEF7F8FF002819D057
:102CD000032129200155032514E00B488069202198
:102CE0008843094988612046FEF7E8FF002803D0A1
:102CF0000321292001550325034880692021084329
:102D000001498861284670BD00280040704710B511
:102D1000FEF7FAF810BD000000B599B034210CA8F8
:102D2000FDF715FA0020089009900A900B901C21DD
:102D300001A8FDF70CFA01204002FEF76FF9092007
:102D40000C90012000040D9001201290022013909D
:102D5000032114910021159110211691010417915E
:102D6000010718910CA8FEF7FDFB002801D0FDF724
:102D70003FFA072008900220099000200A900B904B
:102D8000022108A8FEF778FA002801D0FDF730FAF2
:102D90000848019000200290039006900120400214
:102DA000079001A8FEF766F9002801D0FDF720FA88
:102DB00019B000BD034002000120C006014988602F
:102DC0007047000000ED00E010B50248FFF754F92D
:102DD00010BD00004801002010B50268204B984249
:102DE00002D0204B984205D170241346A3431A46C3
:102DF0004B681A431A4B98420ED01A4B98420BD08C
:102E0000194B984208D0194B984205D0184B98425C
:102E100002D0184B984206D1032424021346A34340
:102E20001A46CB681A4380241346A3434C692343B4
:102E30001A4602608B68C3620B688362084B984233
:102E400008D00A4B984205D0094B984202D0094B52
:102E5000984201D10B6903630123436110BD000057
:102E6000002C0140000400400020004000400140D0
:102E7000004401400048014070B50C468168FF26BF
:102E800036020D46B54329461D0215432543294305
:102E9000816070BD0A468168034B194007231343C4
:102EA00019438160704700008FFFCFFF70B50B465C
:102EB0001446026A056A6D086D0005628169F02694
:102EC0000D46B5432946250129430A261546B54333
:102ED0002A4615461D432A468161026270BD70B5BF
:102EE0000B461446056A1026B54305628169026ADD
:102EF0000F2636030D46B543294625032943A02650
:102F00001546B5432A461D012A438161026270BD00
:102F1000F0B585B004461BA103C9039102901BA123
:102F200003C901910090606E002805D101216A203B
:102F300001536820015322E00827082204922068E8
:102F40008068072149060840450E20688068460FC2
:102F50006A46915D02AA935D049A53431846FDF7B1
:102F6000DBF881B26A2001536A46515D02AA525DC4
:102F70007A431046FDF7D0F881B26820015305B0BE
:102F8000F0BD000001010103070100000804020474
:102F900008010101018DC907C90F002908D0016886
:102FA0004968012252049143C26A11430268516088
:102FB0000222816A1140022907D101684968D203BF
:102FC0009143026B1143026851600422816A1140EF
:102FD000042907D10168496812049143426B1143E7
:102FE000026851600822816A1140082907D10168EE
:102FF000496812039143826B1143026851601022A9
:10300000816A1140102907D1016889681202914331
:10301000C26B1143026891602022816A114020290D
:1030200007D10168896812029143026C114302685A
:1030300091604022816A1140402915D10168496898
:1030400092039143426C11430268516001221205C0
:10305000416C914208D101684968032252059143AD
:10306000826C1143026851608022816A114080297C
:1030700007D10168496812039143C26C1143026889
:103080005160704738B50446002188200151FDF792
:103090001BFE0546206800680821084008280BD15F
:1030A00014482B46002289040090204600F06EFB55
:1030B000002801D0032038BD2068006804210840A2
:1030C00004280BD10B482B4600220905009020460E
:1030D00000F05CFB002801D00320ECE720218020D9
:1030E00001518420015100BF00217C20015500BF07
:1030F0000020E0E7FFFFFF01F0B585B004460026A1
:103100000020039002902169A06808436169084388
:10311000E16908430746606E074320680068F94983
:10312000084038432168086020684068032109038B
:103130008843E168084321684860A769206A07431B
:1031400020688068F049084038432168886020681A
:10315000C06A00090001616A08432168C86200BFB3
:10316000EA492068884217D1E94840698007800F02
:10317000002806D0012808D0022804D0032808D14E
:1031800005E0002507E0022505E0042503E0082509
:1031900001E0102500BF28E0DE492068884217D1F1
:1031A000DB4840690C210840002806D0042808D0DC
:1031B000082804D00C2808D105E0002507E00225E6
:1031C00005E0042503E0082501E0102500BF0CE020
:1031D000D1492068884201D1002506E0CF49206806
:1031E000884201D1002500E0102500BF0121C9035C
:1031F000E069884270D1002D06D0022D53D0042DF5
:103200006BD0082D6AD1ECE0FEF726F90090606AD9
:10321000002801D1012038E0606A012801D1022094
:1032200033E0606A022801D104202EE0606A03289E
:1032300001D1062029E0606A042801D1082024E099
:10324000606A052801D10A201FE0606A062801D1C2
:103250000C201AE0606A072801D1102015E0606A8E
:10326000082801D1202010E0606A092801D14020FF
:103270000BE0606A0A2801D1802006E0606A0B2812
:1032800002D1FF20013000E0012001460098FCF748
:103290002DFF400061684908401801906168FCF703
:1032A00025FF86B2EDE0606A002801D101203BE0F5
:1032B000606A012801D1022036E0606A022801D14B
:1032C000042031E0606A032801D106202CE0606A06
:1032D000042804D1082027E0E9E033E0CEE0606A6A
:1032E000052801D10A201FE0606A062801D10C20C0
:1032F0001AE0606A072801D1102015E0606A0828EA
:1033000001D1202010E0606A092801D140200BE0A3
:10331000606A0A2801D1802006E0606A0B2802D189
:10332000FF20013000E0012001467D48FCF7DEFE71
:10333000400061684908401801906168FCF7D6FEBA
:1033400086B29EE0FEF79CF80090606A002801D1EA
:10335000012038E0606A012801D1022033E0606A70
:10336000022801D104202EE0606A032801D1062042
:1033700029E0606A042801D1082024E0606A052859
:1033800001D10A201FE0606A062801D10C201AE052
:10339000606A072801D1102015E0606A082801D171
:1033A000202010E0606A092801D140200BE0606A0B
:1033B0000A2801D1802006E0606A0B2802D1FF2094
:1033C000013000E0012001460098FCF78FFE40002C
:1033D00061684908401801906168FCF787FE86B271
:1033E0004FE0606A002801D1012038E0606A0128BE
:1033F00001D1022033E0606A022801D104202EE0CE
:10340000606A032801D1062029E0606A042801D1FE
:10341000082024E0606A052801D10A201FE0606AC4
:10342000062801D10C201AE0606A072801D110207B
:1034300015E0606A082801D1202010E0606A0928A0
:1034400001D140200BE0606A0A2801D1802006E00B
:10345000606A0B2802D1FF20013000E00120014604
:103460000120C003FCF742FE400061684908401893
:1034700001906168FCF73AFE86B202E001200390F9
:1034800000BF00BF102E0FD3264886420CD8254817
:103490000F38304004903007400F049908430490DF
:1034A00004982168C86061E1012003905EE1002D6D
:1034B00006D0022D65D0042D72D0082D71D1FBE00D
:1034C000FDF7CAFF0090606A002801D101204BE09F
:1034D000606A012801D1022046E0606A022801D119
:1034E000042041E0606A032801D106203CE0606AC4
:1034F000042801D1082037E0606A052814D10A2089
:1035000032E00000F369FFCFFFF4FF110038014003
:10351000401002400044004000480040004C004081
:103520000024F400FFFF0000606A062801D10C208F
:103530001AE0606A072801D1102015E0606A0828A7
:1035400001D1202010E0606A092801D140200BE061
:10355000606A0A2801D1802006E0606A0B2802D147
:10356000FF20013000E0012001460098FCF7BEFD7D
:1035700061684908401801906168FCF7B7FD86B2A0
:10358000E9E0606A002801D101203AE0606A012880
:1035900001D1022035E0606A022803D1042030E026
:1035A0003CE0D5E0606A032801D1062029E0606A8A
:1035B000042801D1082024E0606A052801D10A20EE
:1035C0001FE0606A062801D10C201AE0606A072813
:1035D00001D1102015E0606A082801D1202010E0F8
:1035E000606A092801D140200BE0606A0A2801D1F5
:1035F000802006E0606A0B2802D1FF20013000E045
:10360000012001465F48FCF771FD616849084018D8
:1036100001906168FCF76AFD86B29CE0FDF730FF1F
:103620000090606A002801D1012038E0606A01281A
:1036300001D1022033E0606A022801D104202EE08B
:10364000606A032801D1062029E0606A042801D1BC
:10365000082024E0606A052801D10A201FE0606A82
:10366000062801D10C201AE0606A072801D1102039
:1036700015E0606A082801D1202010E0606A09285E
:1036800001D140200BE0606A0A2801D1802006E0C9
:10369000606A0B2802D1FF20013000E001200146C2
:1036A0000098FCF723FD61684908401801906168A3
:1036B000FCF71CFD86B24EE0606A002801D10120B3
:1036C00038E0606A012801D1022033E0606A0228F4
:1036D00001D104202EE0606A032801D1062029E0F0
:1036E000606A042801D1082024E0606A052801D11D
:1036F0000A201FE0606A062801D10C201AE0606AE7
:10370000072801D1102015E0606A082801D1202087
:1037100010E0606A092801D140200BE0606A0A28A5
:1037200001D1802006E0606A0B2802D1FF20013021
:1037300000E0012001460120C003FCF7D7FC6168CE
:103740004908401801906168FCF7D0FC86B202E09D
:103750000120039000BF00BF102E05D30A48864207
:1037600002D82068C66001E00120039001216A2090
:103770000153682001530020E0662067039805B0DC
:10378000F0BD00000024F400FFFF0000FFB581B091
:1037900004460D4617460A9E24E0701C002821D0DE
:1037A000FDF792FA0499401AB04201D8002E19D1BF
:1037B00020680068FF21A1318843216808602068E3
:1037C00080684008400021688860202180200151E5
:1037D0008420015100BF00217C20015500BF03203F
:1037E00005B0F0BD2068C0692840A84201D1012081
:1037F00000E00020B842D0D00020F1E702E008C885
:10380000121F08C1002AFAD170477047002001E05A
:1038100001C1121F002AFBD170470000FDF780FB99
:10382000FFF77AFAFEF796FFFEF77AFFFEF730FF12
:10383000FFF77AF8FFF7A6F8FFF7C4F8FFF70EF9DD
:10384000FFF746F9FFF77EF9FFF7A2F90248FEF706
:103850006DFB00BFFEE700004801002000000000F3
:103860000000000000000000000000000000000058
:103870000000000000000000000000000100000047
:103880000200000003000000040000000600000029
:103890000700000008000000090000000000000010
:1038A0000000000000000000000000000100000017
:1038B000020000000300000004000000DC380008E3
:1038C0000000002010000000FC370008EC38000861
:1038D00010000020A80700000C38000800000000BD
:0C38E00004000000010000000024F400BF
:04000005080000B936
:00000001FF
