:020000040800F2
:10000000E80B0020D1000008153D0008213400084D
:1000100000000000000000000000000000000000E0
:100020000000000000000000000000002143000864
:100030000000000000000000553E00085145000887
:10004000E300000800000000E3000008E3000008EF
:10005000E3000008E3000008E3000008E3000008F4
:1000600000000000ED0A0008E3000008E3000008BB
:10007000E3000008E3000008E300000800000000BF
:1000800009460008E3000008E3000008E300000858
:10009000E3000008E3000008E3000008E3000008B4
:1000A000E3000008E3000008E3000008E3000008A4
:1000B000E3000008E30000080448854600F0EEFA7B
:1000C0000048004775520008C046C046E80B0020B3
:1000D0000448804704480047FEE7FEE7FEE7FEE7E6
:1000E000FEE7FEE7F9450008B900000830B50B4609
:1000F000014600202022012409E00D46D5409D4202
:1001000005D31D469540491B254695404019154687
:10011000521E002DF1DC30BD70B5002425460028AC
:1001200001DA01244042002901DA01254942FFF7A2
:10013000DDFFAC4200D04042002C00D0494270BDEF
:10014000D2B201E00270401C491EFBD2704700226F
:10015000F6E710B513460A4604461946FFF7F0FFC6
:10016000204610BDF8B502464A40D40F42004B006D
:1001700052085B089A4202D20246084611464A00DB
:1001800023D0C30D4A00DDB2120EAD1A202D35DA90
:1001900049020126490AF6058A19002C00D052426C
:1001A00020214F1B1146B9402A411018C20D9A4216
:1001B00021D0002C17D0012D08DCDA05801AD20FCF
:1001C0008019D207DBB200F07FF9F8BDDA05801A9A
:1001D000012340001B06C01880185A428018CA0F1D
:1001E0001043490007E04908C2071143DA05801AA5
:1001F00080194008801800F05FF9F8BD6100012205
:10020000511A001BF7E70122D2075140AAE7012249
:10021000D2075040A6E7024670B54A40D30FDB072D
:1002200040002DD04A002AD0010E140E0002120206
:100230000919400A520A8418E50104465443000A89
:10024000120A2E045043A4194219200CC543AA18BF
:10025000120C0125AD03521C521912047F392404DB
:1002600000D0521C104301D44000491EC2B20C06FB
:10027000C0092018401C4008802A02D003E000205A
:1002800070BD40084000002900DA0020184370BD0E
:1002900070B502464A40D50F40004A00ED074008BD
:1002A0005208002814D0002A12D0C40DD30D4102E8
:1002B0000120C0055202490A520AE41A091812180C
:1002C0007D34914201D3641C00E04900002C01DA26
:1002D000002070BD0023914201D3891A03434008D6
:1002E00049000028F7D100290AD0914202D101210A
:1002F000C90705E0914201D2012101E00121C94372
:10030000E005C018401900F0D7F870BDF0B51FB473
:1003100088B00B990998002448400999C00F4900FA
:1003200049080991C0070B990090490049080B91B1
:1003300009990898A64608431CD00B990A980843C7
:1003400018D0099801244000420D4800410D099839
:1003500024050003000B204309900B980003000BB9
:1003600020430B9050181C4940180022019014465D
:10037000104605E0002001460DB0F0BD032801DA6B
:10038000034600E003239C46C11A0AAE0AE05F0060
:1003900008ADED5B4F00F75B7D430027AA187C4159
:1003A000491C5B1E6145F2DD410004AB5A52210439
:1003B000120C0A43240C401C0828DFDB0198029031
:1003C0000099704601910090059B049A0799069840
:1003D00000F0C0F8D0E700000DFCFFFFC217C10F0E
:1003E000504010B54018CA079623002100F06CF861
:1003F00010BD10B500229623114600F065F810BD1F
:100400000EB505490291002100910A460B46019163
:1004100000F0A0F803B000BD33040000410040022A
:100420000122400AD205090E80187F2901DA002036
:100430007047962903DC9622511AC84070479639B6
:1004400088407047C20FD207400040080BD0C10D52
:100450000723DB01C91840020905400A1143C208FD
:10046000400711437047002001467047CB0FDB0760
:10047000490010B5490802460A4307D00A0D07246F
:100480000903E401090B121B002A01DC002010BD46
:10049000C900440F0C43C100E018D205801800F0D9
:1004A0000BF810BD0122D207002800DB101A00292A
:1004B00000DB511A88427047002904DA401C4900C9
:1004C00001D140084000704770B40024050C05D1EC
:1004D0001024000402D1002921D01124050E01D1DD
:1004E00000020834050F01D10001241D850F01D140
:1004F0008000A41C002801DB4000641C002908D0F7
:1005000020252E1B0D46F540A14000D00121294396
:10051000084301061B1B000ADB1D02D5002070BC2E
:100520007047DB05181880180029F8DA401C4900CC
:10053000F5D170BC40084000704710B5002B08DAB8
:100540000024401C614192185B411A4301D14008CC
:10055000400010BDF0B51FB482B005460C0003D0BA
:10056000084604F0C7FD02E004F0C4FD2030024656
:1005700000902146284600F0A3F8049B059A044603
:100580000F4618431143084314D0184610431BD09C
:10059000009840210A1A1846059900F0A1F805466E
:1005A0000E46009A0599049800F08AF8084305D091
:1005B000012004E02046394607B0F0BD0020C117F5
:1005C00005430E432C43374300990E986305401AA8
:1005D0007905E40A00220C43FD0A0A3002D5002006
:1005E0000146E9E70105101969410C9C0D9D0019B0
:1005F0006941FFF7A2FFDFE7FEB500231A461B1A89
:100600008A4103DB0020014603B0F0BD4A000D0320
:1006100001212D0B0905520D0D43D10702D1001800
:100620006D41521E5110FF31FF3101310027044648
:100630003E463846009701910246012100200905F7
:1006400000F04EF8C3197141F818324684468E46C0
:100650004A4161462846611A904104D36046241AF3
:10066000954176461F46241900986D41401C009024
:100670003428E1DDF91930467041091BA84103D245
:100680000022D243134601E00022134601980105DF
:10069000381C7141FFF751FFB6E70000064C0125F9
:1006A000064E05E0E36807CC2B430C3C984710341A
:1006B000B442F7D3FFF704FD7053000890530008CD
:1006C00010B5202A04DB0146203A9140002010BDDD
:1006D000914020239C1A0346E3401943904010BDEB
:1006E00010B5202A04DB0846203AD040002110BD76
:1006F0000B46D340D0402024A21A9140084319460B
:1007000010BD70B50546AC6AA06D502108400028A8
:1007100031D1A06D012149020843A065206803F092
:100720003CF8002823D0A07E002820D12068006853
:100730000821084008281AD1206803F028F800286A
:100740000DD1206840680C21884321684860A06D65
:10075000FF210131884301210843A06507E0A06D16
:1007600020210843A065E06D01210843E065204693
:1007700000F0C6FB0CE0A06D10210840002803D05B
:10078000204600F0E2FB03E0206D416B28468847DD
:1007900070BD70B50546AC6AA06D40210843A065E8
:1007A000E06D04210843E065204600F0CEFB70BDFB
:1007B00070B50446A56A284600F0C6FB70BD00006F
:1007C00070B50446206802F0D3FF002839D12068B4
:1007D00080681D490840002809D0A06D10210843F9
:1007E000A065E06D01210843E065012070BD20682F
:1007F00002F0B0FF607E012823D001F041F80546E9
:1008000016E0206802F0B4FF002802D1206802F050
:10081000A1FF01F035F8401B022809D9A06D102175
:100820000843A065E06D01210843E0650120DDE794
:1008300020680068C007C00F0121484048400028D8
:10084000DFD00020D2E700001700008030B58DB067
:100850000546A8680A9068690B90A8690C902868FA
:100860000790E8680890286A0990686804902869E9
:100870000590E86906900024B9E0A00004A9085892
:100880000190A0000AA908580290A00007A90858E2
:100890000390A1007948405801994118A200774877
:1008A0008150A1000C30405802994118A2007348B1
:1008B0000C308150A1000C30405803994118A2001F
:1008C0006E481830815061006D4A515A0198401AA3
:1008D000019062006A480C30805A0299081A02900E
:1008E00062006748801D805A0399081A0390019896
:1008F0004043A2006149243189584118A2005F4851
:100900002430815002984043A2005C49303189581C
:100910004118A20059483030815003984043A2004A
:1009200056493C3189584118A20054483C30815006
:10093000544800780C225043534A8018A200019971
:1009400081500120A040514909780840002826D054
:100950004F4800780C2148434B494018A1004058AB
:1009600003994843A2004549603189584118A200C3
:10097000424860308150434800780C214843424946
:100980004018A100405803994843A2003B49543104
:1009900089584118A20039485430815025E03C481C
:1009A00000780C21484338494018A100405802996A
:1009B0004843A2003149603189584118A2002F48AC
:1009C000603081502F4800780C2148432E49401850
:1009D000A100405802994843A2002849543189583F
:1009E0004118A200254854308150601CC4B2032C29
:1009F00000D242E705990498411A20480838006D52
:100A000009181E480838016506990598411A1B48BF
:100A100048304068091819484830416004990698E0
:100A2000411A1648483080680918144848308160D7
:100A300017480078401C1649087012480078401C7E
:100A40001049087012480078142802D90020104973
:100A500008700C480078142802D900200949087051
:100A60000AA804F089FB074909780C225143064A79
:100A7000505804F0E3FA0DB030BD0000C80100206A
:100A80003800002034000020C000002000000020BA
:100A90003500002010B500BF134800780128FBD1B5
:100AA00003F040FC00201049087000BF0E48007899
:100AB0000128FBD103F036FC00200B49087000BF71
:100AC000094800780128FBD103F02CFC00200649DE
:100AD000087000BF044800780128FBD103F022FC15
:100AE00000200149087010BD1C00002010B502480C
:100AF00000F06AFC10BD00004004002070B5044600
:100B00002178084608381421FFF7F0FA0546206CD2
:100B10008008800005494018606404488030A06463
:100B20001C20284001218140E16470BD0008024082
:100B300001794A1E9200064BD2180265044A4032DF
:100B400042654A1E93079B0F01229A4082657047B7
:100B50000009024070B5856CC46C6C60046D002C9B
:100B600002D0456D846D6C600C4C64681C26056C6D
:100B700035400126AE403443084D6C600468636024
:100B80008468102C04D10468A2600468E16003E06A
:100B90000468A1600468E26070BD000000000240CB
:100BA00070470000F0B585B005460C460020039064
:100BB00002900121C9072869884203D0091D2869CC
:100BC000884200D100E000BF00BF5420405D0128F2
:100BD00002D1022005B0F0BD01215420415500BFD3
:100BE000286802F0D4FD002876D16068022874D00D
:100BF0000121C9072869884203D0091D2869884254
:100C000008D128682168826A4B035B0B1A43826211
:100C100000BFC6E02179CA06D20E0F219140286E8E
:100C2000884321684903490B002905D11F229206F8
:100C300021681140890E92E02178C907C90F002967
:100C400001D000218BE0022221681140022901D14C
:100C5000012184E0042221681140042901D10221EC
:100C60007DE0082221681140082901D1032176E0A6
:100C7000102221681140102901D104216FE02022A7
:100C800021681140202901D1052168E04022216816
:100C90001140402901D1062161E0802221681140E4
:100CA000802901D107215AE0FF2201322168114039
:100CB000914201D1082152E00122520221681140E3
:100CC000914201D109214AE001229202216811409A
:100CD000914203D10A2142E0F7E0B7E00122D202BB
:100CE00021681140914201D10B2138E00122120309
:100CF00021681140914201D10C2130E001225203C0
:100D000021681140914201D10D2128E00122920376
:100D100021681140914201D10E2120E00122D2032D
:100D200021681140914201D10F2118E001221204E3
:100D300021681140914201D1102110E0012252049A
:100D400021681140914201D1112108E00122920451
:100D500021681140914201D1122100E00021227945
:100D6000D206D20E91400843286660688008401C75
:100D7000E969884215D82868226861680192836A07
:100D8000CF06FF0E0F22BA4093430F27BF06019AEA
:100D90003A40920ECF06FF0EBA401343836200BF63
:100DA00000BF286821680091A168019142690099FB
:100DB00009028A4300990B024A4F019939400B40BE
:100DC0001A43426100BF2068C00FC00700281ED030
:100DD000454802F0C7FC064644492068884217D1BE
:100DE000C0023040002813D1C802304301463E48BB
:100DF00002F0E6FC3E493F480068FFF777F90290B1
:100E000002E00298401E029002980028F9D162E0A8
:100E10003949206888420AD180023040002806D132
:100E2000880230430146304802F0CAFC53E033499F
:100E3000206888424FD14002304000284BD1480200
:100E400030430146284802F0BBFC44E00121C907B9
:100E50002869884203D0091D2869884208D128687A
:100E60002168826A4B035B0B9A43826200BF00BF1A
:100E70002068C00FC00700282DD01B4802F072FC6C
:100E800006461A492068884207D1C202304690437C
:100E90000146154802F094FC1DE01749206888427D
:100EA00007D182023046904301460F4802F088FC89
:100EB00011E01249206888420DD142023046904329
:100EC0000146094802F07CFC05E0A86D202108439A
:100ED000A8650120039000BF00215420415500BFA8
:100EE000039877E600FFFF0708270140001000B0D5
:100EF000400D03002C000020004000B8002000B48A
:100F000010B504460C48844215D10C48FFF79EFCEE
:100F10000B480088401C0A49088008460088FF21C9
:100F20009131884207D103F067FA00200449088014
:100F300001200449087010BDDC030020B803002024
:100F40001E0000201C00002070477047FEB50446BC
:100F500000200190002500260090002C01D10120E6
:100F6000FEBD2069002805D001214905206988427D
:100F700000D100BFA06D002807D1204600F042F943
:100F80000020E065002154200155206802F0F8FBA4
:100F9000002816D120688168924A11400122120768
:100FA0001143816000BF904990480068FFF79EF8A8
:100FB0004000009002E00098401E00900098002839
:100FC000F9D1206802F0DCFB002809D1A06D1021C6
:100FD0000843A065E06D01210843E0650120019010
:100FE000206802F0D4FB0746A06D102108400028BD
:100FF0007ED1002FFCD1A06D090188430221084356
:10100000A065206802F0B4FB00282AD12068C068DF
:1010100018218843A16808432168C86020680069D6
:10102000800080086168890F89070843216808618A
:10103000032189076068884213D04942606888426A
:101040000FD04900606888420BD0694880680F2142
:10105000890488430F22920461681140084364495F
:101060008860207E8003617EC9030843A17E490316
:101070000843216B002902D00121090300E000216F
:101080000843E16808432169C90FC907002903D053
:1010900021694900490801E00121490508432C2143
:1010A000095D4900084305432020005D01280ED159
:1010B000A07E002803D101200004054307E0A06DB5
:1010C00020210843A065E06D01210843E065606AC6
:1010D000002806D0FF21C131606A0840A16A084398
:1010E0000543216C606C0843A16C0843E16C00E08F
:1010F00070E0084306433C20005D012800D1064310
:101100002068C0683B49084028432168C8602068BF
:101110000069394908403043216808610021626B49
:10112000206802F054FB3549A26B206802F04FFBA7
:101130002069002807D12068806A0F21C94308432D
:10114000216888622AE0012149052069884225D169
:10115000002008E08200216ED1400907090F0F2905
:1011600000D102E0401C0828F4D300BF012807D1B9
:101170002168896A0F22D2431143226891620CE0F0
:10118000217F491E4907CA0E0F21C9439140226E93
:1011900011432268926A2268916200BF2068C06889
:1011A00017490840A84208D10020E065A06D02213F
:1011B000884301210843A06512E0A06D0221884305
:1011C00010210843A065E06D01210843E06501207E
:1011D000019005E0A06D10210843A0650120019059
:1011E0000198BDE6E8FFFF7F400D03002C000020C2
:1011F000002701401902FEFF02FCFFDF04FFFF078A
:10120000E7FF3F8310B586B00446142101A8FEF71E
:101210009EFF34492068884261D100BF324800688F
:10122000012109050843304908600846006801218A
:1012300009050840009000BF00BF00BF2A484038A1
:10124000406B012108432849403948630846406BF8
:10125000C007C00F009000BF00BF00BF0846406B32
:10126000022108432049403948630846406B022167
:101270000840009000BF00BFF820019003200290BA
:101280000020039001A90520000700F00BFA174881
:101290000190032002900020039001A9144800F05F
:1012A00001FA1448144908600520486000211248DA
:1012B0008160C16080210161890041618900816193
:1012C0002021C1610902016200F00EF9002801D05D
:1012D000FFF766FC00BF08482065846200BF06B0C7
:1012E00010BD00000024014040100240070400002F
:1012F000000400500800024040040020F8B50446F5
:101300000E461746206802F042FA002850D100BF6E
:101310005420005D012801D10220F8BD0121542094
:10132000015500BF2068C068084000280DD1206822
:1013300002F01EFA002802D0206802F003FA2068AA
:10134000C068012108432168C8602046FFF738FAC9
:101350000546002D2DD1A06D17490840FF21013110
:101360000843A0650020E0651448216DC862144858
:10137000216D08631348216D48631C2021680860B3
:1013800000BF00215420015500BF20684068102193
:101390000843216848602268114640313B46324686
:1013A000206D00F0FFF80546206802F001FA00E029
:1013B00002252846B1E70000FEF1FFFF0307000801
:1013C000B10700089307000870B504464548056852
:1013D000206806681C20216C0140042088402840B9
:1013E000002820D00420304000281CD0206800684D
:1013F00020210840002805D1206800680421884386
:1014000021680860374840681C22216C1140042282
:101410008A40104333494860206B002860D0204642
:10142000216B88475CE01C20216C01400220884031
:101430002840002828D002203040002824D02068EE
:10144000006820210840002808D1206800680A218F
:101450008843216808600121252001552148416801
:101460001C22206C10400222824011431D48416022
:1014700000BF00212420015500BFE06A00282FD0C2
:101480002046E16A88472BE01C20216C014008209F
:1014900088402840002823D00820304000281FD052
:1014A000206800680E218843216808600D48416863
:1014B0001C22206C104001228240114309484160E7
:1014C0000120E06301212520015500BF00212420D7
:1014D000015500BF606B002802D02046616B884731
:1014E00070BD00000000024010B50446002C01D180
:1014F000012010BD294A2168881A1421FEF7F6FD43
:1015000080002064022125200155206800682449BC
:10151000084021680860E168A06808432169084321
:1015200061690843A1690843E1690843216A0843E6
:10153000216809680843216808602046FFF7DEFA41
:1015400001218903A068884201D1002060602079D0
:10155000616C0860A16CE06C4860606800280CD089
:101560006068042809D82046FFF7E2FA0020216DC0
:101570000860616DA06D486003E000202065606533
:10158000A0650020E06301212520015500BF002156
:101590002420015500BF0020ABE7000008000240F6
:1015A0000F80FFFFF8B504460D4616461F46002083
:1015B000009000BF2420005D012801D10220F8BD69
:1015C00001212420015500BF2520005D012844D1C0
:1015D0000221252001550020E063206800684008B2
:1015E0004000216808603B46324629462046FFF706
:1015F000B1FA206B002806D0206800680E2108434D
:10160000216808600BE02068006804218843216895
:101610000860206800680A21084321680860606C3F
:101620000068012109040840002805D0606C0068AA
:1016300009120843616C0860206D002806D0206DF7
:101640000068FF2101310843216D086020680068AF
:10165000012108432168086006E000BF0021242022
:10166000015500BF0220009000BF00212420015539
:1016700000BF0098A3E7000070B5044600F000F931
:1016800006462546681C002802D0054800682D182B
:1016900000BF00F0F5F8801BA842FAD370BD00002F
:1016A0002800002070B503460022D5E001269640B0
:1016B0000C683440002C71D04D68022D02D04D686A
:1016C000122D15D1D508AE001D462035A859550755
:1016D000EE0E0F25B5400646AE4330465607F60ED1
:1016E0000D69B5402843D508AD001E46203670511F
:1016F000186856000325B5400646AE4330460D79BE
:10170000AD07AD0F5600B540284318604D68012D58
:1017100008D04D68022D05D04D68112D02D04D68BE
:10172000122D18D1986856000325B5400646AE43E1
:1017300030465600CD68B54028439860586801256A
:1017400095400646AE43304610264D6835402D097B
:10175000954028435860D86856000325B540064692
:10176000AE43304656008D68B5402843D860012608
:1017700036074D683540B5426DD13A4D9608B600F2
:10178000A8599507EE0E0F25B5400646AE433046E4
:1017900005252D07AB4202D1002510E05BE0324D5C
:1017A000AB4201D101250AE0304DAB4201D1022507
:1017B00005E02F4DAB4201D1032500E0052596073A
:1017C000F60EB5402843274D9608B600A851254D82
:1017D000203528680546A5432846012636044D686D
:1017E0003540B54202D10546254328461D4D2035DA
:1017F000286068680546A5432846012676044D689A
:101800003540B54202D1054625432846154D2035C1
:101810006860144D603D28680546A54328460126AA
:1018200036054D683540B54202D105462543284668
:101830000C4D603D286068680546A5432846012692
:1018400076054D683540B54202D105462543284608
:10185000044D603D6860521C0D68D540002D00D0DD
:1018600024E770BD601802400004005000080050DA
:10187000000C0050002A01D0816100E081627047B5
:101880000148006870470000200000200246412007
:10189000805C20282FD100BF4020805C012801D12E
:1018A0000220704701234020835400BF242341209D
:1018B000835410680068400840001368186010687E
:1018C000006801231B0398431368186010680068C0
:1018D00008431368186010680068012318431368F0
:1018E000186020234120835400BF002340208354EC
:1018F00000BF0020D5E70220D3E710B502460B4613
:101900004120805C20282ED100BF4020805C01282F
:1019100001D1022010BD01244020845400BF2424A2
:10192000412084541068006840084000146820601A
:10193000106801680F2424020846A04301461802DB
:101940000143106801601068006801242043146896
:10195000206020244120845400BF0024402084546F
:1019600000BF0020D6E70220D4E7000010B50446EF
:10197000002C01D1012010BD4120005D002805D1BF
:10198000002140200155204600F002FA2421412088
:1019900001552068006840084000216808600F2158
:1019A0000906606888432168086120688068012111
:1019B000C903884321688860E068012806D10121B5
:1019C000C903A06808432168886005E021218902D5
:1019D000A068084321688860E068022802D180027C
:1019E00021684860206840681449084321684860BD
:1019F0002068C0680121C90388432168C860616903
:101A000020690843A169090208432168C860216A66
:101A1000E0690843216808602068006801210843E4
:101A200021680860002060642021412001550020C9
:101A3000206300214220015500209CE70080000225
:101A4000FFB583B004460C9F0E9E4120005D202808
:101A50007ED1002F02D00D98002805D10120400230
:101A60006064012007B0F0BD00BF4020005D012888
:101A700001D10220F6E701214020015500BFFFF708
:101A8000FFFE054619230122D1032046009501F0EF
:101A9000CFFD002801D00120E4E72221412001559B
:101AA0004021422001550020606467620D986085E6
:101AB0000020606300960195204604A90EC901F03C
:101AC0001BFD002806D000BF00214020015500BFAB
:101AD0000120C7E7608DFF280CD9FF2020854148F1
:101AE0000090208DC2B201231B062046049901F00C
:101AF00083FD0BE0608D20853A480090208DC2B2B6
:101B000001235B062046049901F076FD00BF3346B1
:101B1000002204212046009501F08AFD002801D012
:101B200001209FE72068406A616A0870606A401C73
:101B30006062208D401E2085608D401E6085608D16
:101B400000282BD0208D002828D13346002200E029
:101B500045E080212046009501F06AFD002801D073
:101B600001207FE7608DFF280CD9FF202085002011
:101B70000090208DC2B201231B062046049901F07B
:101B80003BFD0BE0608D208500200090208DC2B2CF
:101B900001235B062046049901F02EFD608D00288C
:101BA000B5D12A463146204601F06EFD002801D00D
:101BB000012057E720202168C861206840680A4951
:101BC0000840216848602021412001550021422021
:101BD000015500BF4020015500BF002042E7022010
:101BE00040E700000024008000E800FEFFB583B05D
:101BF00004460C9F0E9E4120005D20287ED1002FC0
:101C000002D00D98002805D1012040026064012017
:101C100007B0F0BD00BF4020005D012801D10220C7
:101C2000F6E701214020015500BFFFF729FE0546D8
:101C300019230122D1032046009501F0F9FC002868
:101C400001D00120E4E7212141200155402142201B
:101C500001550020606467620D9860850020606314
:101C600000960195204604A90EC901F085FC0028C4
:101C700006D000BF00214020015500BF0120C7E76A
:101C8000608DFF280CD9FF20208500200090208D3A
:101C9000C2B201231B062046049901F0ADFC0BE003
:101CA000608D208500200090208DC2B201235B064C
:101CB0002046049901F0A0FC00BF2A463146204688
:101CC00001F00FFD002801D00120A1E7606A007833
:101CD00021688862606A401C6062608D401E608579
:101CE000208D401E2085608D00282BD0208D00285F
:101CF00028D1334600228021204600E043E00095B1
:101D000001F096FC002801D0012081E7608DFF28BA
:101D10000CD9FF20208500200090208DC2B2012325
:101D20001B062046049901F067FC0BE0608D2085BE
:101D300000200090208DC2B201235B06204604994A
:101D400001F05AFC608D0028B7D12A463146204662
:101D500001F09AFC002801D0012059E720202168D9
:101D6000C86120684068094908402168486020210E
:101D70004120015500214220015500BF402001555E
:101D800000BF002044E7022042E7000000E800FE18
:101D900010B586B00446142101A8FEF7D8F91949F8
:101DA000206888422CD100BF1748406B02210843AD
:101DB000154948630846406B02210840009000BF67
:101DC00000BF0520C0020190122002900120039064
:101DD000002004900620059001A90C48FFF762FC42
:101DE00000BF0948C06B0121890508430649C86343
:101DF0000846C06B012189050840009000BF00BF64
:101E000006B010BD00580040001002400004005011
:101E10000348006803490968401801490860704791
:101E2000200000202800002010B500240848006889
:101E3000FF210131084306490860002000F00AF83C
:101E4000002801D0012401E000F034F8204610BD44
:101E500000200240F8B50446002513480068002819
:101E60001ED0114801687D20C000FEF73FF90746EB
:101E700039460E480068FEF739F9064600F0C0FE04
:101E800000280BD1042C07D200222146401E00F06E
:101E90003FF80748046004E0012502E0012500E066
:101EA00001252846F8BD0000280000202C00002055
:101EB0002400002008B500BF0E4800680121084337
:101EC0000C49086008460068C007C00F009000BFBA
:101ED00000BF00BF07484038C06B8905084305496B
:101EE0004039C8630846C06B09040840009000BF31
:101EF00000BF08BD4010024000BFC206D20E012143
:101F00009140024A116000BF7047000000E100E00C
:101F100070B504460D4616462946204601F0FCFEE3
:101F200070BD000070B504461148006803214902E5
:101F3000884320430E4908604815844216D10D4954
:101F400009680622514308460B49FEF7CFF8451CA5
:101F500005E0002D01D06D1E01E0032070BD044896
:101F600040690121890208408842F2D00020F5E74B
:101F7000007000402C00002040420F00FEB50446D7
:101F8000002700200290012149042068084088426F
:101F90007BD1002001907748C06BC902084000281F
:101FA0000ED100BF7348C06B08437249C86308462E
:101FB000C06B09040840009000BF00BF01200190E1
:101FC0006D480068FF21013108436B490860FFF745
:101FD00057FC064606E0FFF753FC801B022801D998
:101FE000032706E064480068FF210131084000280B
:101FF000F1D000BF002F4BD15E484030C5690321AE
:1020000009020D40002D1AD0A069A84217D05948E6
:102010004030C0698843054656484030C0690121B8
:102020000904084353494031C8610846C069012189
:10203000090488434F494031C8610846C561E80733
:10204000C00F002813D0FFF71BFC064607E0FFF780
:1020500017FC801B4949884201D9032706E04548FF
:102060004030C069022108400028F0D000BF002F96
:102070000CD140484030C069032109028843A1695E
:1020800008433C494031C86103E00DE0029700E09D
:1020900002970198012806D13648C06B0121090733
:1020A00088433449C86300BF2078C007C00F0028A8
:1020B00009D030484030406980088000616808439A
:1020C0002C4940314861022120680840022809D18A
:1020D0002848403040690C218843A16808432549BD
:1020E0004031486140212068084040280AD12148F9
:1020F00040304069032109038843E16808431D49D2
:10210000403148610121890320680840884213D189
:1021100018484030406980008008616908431549CB
:102120004031486109066069884205D11148C0689C
:10213000891308430F49C8600121C902206808407B
:10214000884215D10B4840304069032189038843F8
:102150002169084307494031486101218903206909
:10216000884205D10348C068890008430149C86016
:102170000298FEBD0010024000700040881300006D
:1021800070B504460D46002C01D1012070BD6B488E
:1021900000684007400FA84218D268480068C0088D
:1021A000C000284365490860FFF76AFB064607E060
:1021B000FFF766FB801B6249884201D90320E5E7EF
:1021C0005E4800684007400FA842F1D10221206814
:1021D0000840022815D1042120680840042807D1AE
:1021E000584880680721090388434018554988608A
:1021F000544880680F2109028843A1680843514967
:1022000088602078C007C00F002854D0606801287B
:1022100008D14C48006801214904084000282ED10B
:102220000120B3E76068022808D146480068012110
:1022300049060840002822D10120A7E7606800284D
:1022400008D140480068012189020840002816D1C1
:1022500001209BE76068032808D13A484030006AB3
:102260000221084000280AD101208FE7354840307C
:10227000C06902210840002801D1012086E73148C9
:102280008068C008C000616808432E498860FFF775
:10229000F7FA064607E0FFF7F3FA801B2849884261
:1022A00001D9032072E72748806838210840616817
:1022B000C9008842EFD1214800684007400FA8427A
:1022C00018D91E480068C008C00028431B49086090
:1022D000FFF7D6FA064607E0FFF7D2FA801B184947
:1022E000884201D9032051E7144800684007400F95
:1022F000A842F1D1042120680840042808D11148DF
:102300008068072109038843E16808430D49886014
:1023100000F03AF80B4989680F2212021140090AAD
:102320008900094A515CC906C90EC84007490860BE
:1023300007480068FFF78EFD28E7000000200240F4
:102340008813000000100240105300082C000020E9
:102350002400002001480068704700002C00002085
:1023600000B5FFF7F7FF06498968072212031140FD
:10237000090B8900034A515CC906C90EC84000BD5B
:102380000010024050530008FEB5354880683821DF
:10239000084000280DD13248006809020840C10AEF
:1023A0000120884000902F480099FDF79FFE0446C9
:1023B00054E02B48806838210840082801D12A4C75
:1023C0004CE02748806838210840102834D1244840
:1023D000C0688607B60F2248C0687021084000090F
:1023E000401C0190022E0FD0032E0CD11E480199E3
:1023F000FDF77CFE1A49C9687F2212021140090AC2
:10240000484305460DE000BF16480199FDF76EFEF2
:102410001349C9687F2212021140090A4843054640
:1024200000BF00BF0E48C068400F471C3946284611
:10243000FDF75CFE044611E0094880683821084039
:10244000202801D1840209E005488068382108402D
:10245000182802D17D24240200E000242046FEBD7D
:10246000001002400024F40000127A00FEB5044679
:10247000002C01D10120FEBD2078C007C00F00282C
:102480006FD0F748876838210F40C0688607B60FBD
:10249000102F01D1032E01D0082F0BD1F048006876
:1024A00001214904084000285BD06068002858D109
:1024B0000120E0E700BF012109046068884205D1DE
:1024C000E74800680843E649086021E0052109045F
:1024D000606888420ED1E2480068012189040843FF
:1024E000DF49086008460068012109040843DC4907
:1024F00008600DE0DA480068012109048843D849E2
:10250000086008460068012189048843D4490860AE
:1025100000BF6068002812D0FFF7B2F9054606E058
:10252000FFF7AEF9401B642801D90320A3E7CC488C
:1025300000680121490408400028F1D011E0FFF7AC
:102540009FF9054606E0FFF79BF9401B642801D977
:10255000032090E7C2480068012149040840002890
:10256000F1D1022120680840022873D1BC4880685C
:10257000382108400746BA48C0688607B60F102FB2
:1025800001D1022E01D0002F36D1B54800680121BB
:1025900089020840002804D0E068002801D1012009
:1025A00069E7AF4840687F210902884361690902F1
:1025B0000843AB494860002F16D108460068072140
:1025C000C902884321690843A54908600846006894
:1025D0000722D2021040C20A012090400146A148C1
:1025E000FDF784FDA0490860A0480068FFF732FCB1
:1025F000002849D001203EE7E06800282BD0984809
:1026000000680721C902884321690843944908608A
:10261000084600688915084391490860FFF730F9BA
:10262000054606E0FFF72CF9401B022801D90320DC
:1026300021E78B4800680121890208400028F1D079
:10264000874840687F21090288436169090208437D
:102650008349486018E082480068FF2101318843BF
:102660007F490860FFF70CF9054606E0FFF708F917
:10267000401B022801D90320FDE6794800680121AA
:10268000890208400028F1D1082120680840082864
:1026900049D1734880683821084018280BD1704808
:1026A0004030006A0221084000283CD0A069002880
:1026B00039D10120DFE6A06900281AD068484030EF
:1026C000006A01210843664940310862FFF7D8F8E3
:1026D000054606E0FFF7D4F8401B022801D9032085
:1026E000C9E65F484030006A022108400028F1D066
:1026F00019E05B484030006A4008400058494031CA
:102700000862FFF7BDF8054606E0FFF7B9F8401B81
:10271000022801D90320AEE651484030006A022168
:1027200008400028F1D104212068084004287CD109
:10273000002001904A4880683821084020280BD1A9
:1027400047484030C0690221084000286ED0A06888
:1027500000286BD101208EE64148C06B010F01209B
:102760008843002810D000BF3D48C06B01210907F5
:1027700008433B49C8630846C06B09040840009001
:1027800000BF00BF0120019039480068FF210131DE
:102790000840002816D136480068084334490860CC
:1027A000FFF76EF8054606E0FFF76AF8401B0228BF
:1027B00001D903205FE62E480068FF21013108405F
:1027C0000028F1D000BFA068012808D1244840307B
:1027D000C0690121084322494031C86120E0A06856
:1027E00005280FD11E484030C069042108431C4908
:1027F0004031C8610846C069012108431849403189
:10280000C8610DE016484030C069410849001448CD
:102810004030C161C0690421884311494031C86119
:1028200000BFA068002816D001E040E03EE0FFF7BE
:1028300027F8054607E0FFF723F8401B0D498842BB
:1028400001D9032017E606484030C069022108403C
:102850000028F0D01EE0FFF713F8054614E0000052
:10286000001002400024F4002C000020240000206E
:102870000070004088130000FFF702F8401B644915
:10288000884201D90320F6E56248C0690221084068
:102890000028F1D10198012808D15E484038C06B6A
:1028A0000121090788435B494039C86300BFE069DB
:1028B00000285AD0574840388068382108401028EE
:1028C0007ED0E069022851D1524840380068012189
:1028D000090688434F4940390860FEF7D1FF054695
:1028E00006E0FEF7CDFF401B022801D90320C2E518
:1028F0004848403800680121490608400028F0D1C6
:10290000616A206A0843A16A09020843E16A084330
:10291000216B08433F494039C9683F4A1140084389
:102920003C494039C860084600680121090608434F
:102930003849403908600846C068090408433549E9
:102940004039C860FEF79CFF054606E0FEF798FF99
:10295000401B022801D903208DE52E48403800682D
:102960000121490608400028F0D04EE029484038AF
:102970000068012109068843264940390860084655
:10298000C06880088000C8600846C06823490840C5
:1029900020494039C860FEF773FF054607E0FEF79F
:1029A0006FFF401B022802D9032064E508E01948A4
:1029B000403800680121490608400028EFD124E092
:1029C000E069012800D156E512484038C668B107D1
:1029D000890F206A814216D170203040616A884296
:1029E00011D17F2000023040A16A090288420AD139
:1029F0001F2040043040E16A884204D1710F49072A
:102A0000206B814201D0012035E5002033E5000034
:102A100088130000401002408C80C11FFFFFFEEFB2
:102A2000FFB581B004460D461646002C02D10120A8
:102A300005B0F0BD80200059002805D100217C2080
:102A40000155204600F0E6FB24218020015120683A
:102A500000684008400021680860204601F06CFFD3
:102A6000012800D1E4E7A06A002802D0204601F046
:102A7000B1FE2068806801218903084321688860CD
:102A8000206880680121C903884328432168886041
:102A90007705049800040743206800680749084048
:102AA00038432168086020680068012108432168D4
:102AB0000860204601F006FFBAE70000FFFF00FCB7
:102AC00070B504460125002C57D02920005D002850
:102AD00008D10021282001551120C0026060204645
:102AE00000F050F802212920015500BFCA202168BA
:102AF000486253202168486200BF204601F0ABF9CC
:102B00000546002D2FD1206880691D4908402168A5
:102B100088616169A0680843E1690843216889699F
:102B2000084321688861216820690861206800697C
:102B3000A1890904084321680861204601F0B4F91D
:102B40000546002D0FD120688069C000C0082168AB
:102B50008861216A606A0843A1690843216889691C
:102B600008432168886100BFFF202168486200BFD8
:102B7000002D02D1012129200155284670BD0000F9
:102B8000BFFF8FFB08B50D4A0168914215D10C4972
:102B9000C969D21311430A4AD16100BF08494039BB
:102BA000C96B12151143064A403AD1631146C96BED
:102BB00012151140009100BF00BF08BD0028004061
:102BC0004010024070B504462068C068A0218843C8
:102BD0002168C860FEF754FE054608E0FEF750FE87
:102BE000401B7D21C900884201D9032070BD2068A7
:102BF000C068202108400028F0D00020F6E700003F
:102C000070B504462546681E0949884201D901204D
:102C10000CE0681E074948610321081F01F07CF899
:102C200000200449886107200861002070BD000071
:102C3000FFFFFF0000E000E07047704770470000B2
:102C400030B502460B4600BF3C20805C012801D114
:102C5000022030BD01253C20855400BF02253D20C7
:102C600085541068416810688468124D1068A84245
:102C700006D10F252D050846A84301465868014393
:102C800070250846A8430146186801438025204660
:102C9000A843044698680443106841601068846043
:102CA00001253D20855400BF00253C20855400BFF0
:102CB0000020CEE7002C014010B50446002C01D1C5
:102CC000012010BD3D20005D002805D100213C20E1
:102CD0000155204600F00CF802213D200155211D30
:102CE000206801F099FC01213D2001550020E8E712
:102CF00038B504460D492068884215D100BF0C48FC
:102D0000C06B022108430A49C8630846C06B022110
:102D10000840009000BF00BF002211461020FFF7BE
:102D2000F7F81020FFF7E8F838BD00000004004075
:102D300000100240014602233D2043540868806889
:102D4000094B18400246062A08D0D81F824205D0F7
:102D500008680068012318430B68186001233D20B0
:102D6000435400207047000007000100F8B50446F6
:102D70000D4600BF3C20005D012801D10220F8BDB6
:102D800001213C20015500BF02213D200155206852
:102D9000866839480640FF210902304688430646C6
:102DA000206886602868502834D00CDC202851D058
:102DB00004DC00284CD0102852D14AE030284AD0F8
:102DC00040284DD13AE060282ED0702807D001214C
:102DD0000903401A02D0401A42D10DE041E0EB68ED
:102DE0006A68A968206801F067FC20688668772017
:102DF00006432068866034E0EB686A68A96820684A
:102E000001F05AFC20688068012189030843216889
:102E1000886026E0EA686968206801F067FC502154
:102E2000206801F057FC1CE0EA686968206801F03E
:102E300076FC6021206801F04DFC12E0EA686968C8
:102E4000206801F053FC4021206801F043FC08E0B9
:102E500000BF00BF00BF2968206801F03BFC00E014
:102E600000BF00BF01213D20015500BF00213C20D3
:102E7000015500BF002082E788FFCEFF70470000A9
:102E800010B5044620680069022108404008002867
:102E90001CD02068C06808404008002816D0481F91
:102EA0002168086101202077206880698007800FF1
:102EB000002803D02046FFF7E1FF05E0204600F0A0
:102EC000DBF8204600F0D9F8002020772068006960
:102ED00004210840800800281DD02068C0680840F0
:102EE0008008002817D0C843216808610220207795
:102EF00020688069032109020840002803D0204689
:102F0000FFF7BCFF05E0204600F0B6F8204600F0D1
:102F1000B4F8002020772068006908210840C00824
:102F200000281CD02068C0680840C008002816D0BF
:102F3000C84321680861042020772068C0698007A1
:102F4000800F002803D02046FFF798FF05E02046B9
:102F500000F092F8204600F090F8002020772068DA
:102F6000006910210840000900281DD02068C068B1
:102F700008400009002817D0C843216808610820CC
:102F800020772068C069032109020840002803D087
:102F90002046FFF773FF05E0204600F06DF820465D
:102FA00000F06BF80020207720680069C007C00F90
:102FB00001214840484000280CD02068C0680840E3
:102FC00048404840002805D0C81E216808612046B6
:102FD00000F054F82068006980210840C0090028EA
:102FE0000BD02068C0680840C009002805D0C8433D
:102FF000216808612046FFF720FE20680069FF2154
:1030000001310840000A00280CD02068C0688021E7
:103010000840C009002805D01648216808612046EC
:10302000FFF70AFE20680069402108408009002857
:103030000BD02068C06808408009002805D0C8432C
:1030400021680861204600F01AF8206800692021F4
:103050000840400900280BD02068C068084040099B
:10306000002805D0C843216808612046FFF7E6FD27
:1030700010BD0000FFFEFFFF7047704770477047AC
:10308000014600BF7C20405C012801D1022070472E
:1030900001237C20435400BF242380204350086830
:1030A000026808680068400840000B681860012347
:1030B0005B07104698430246002048660868026095
:1030C00020238020435000BF00237C20435400BFB6
:1030D0000020DCE770B504460D4600BF7C20005D93
:1030E000012801D1022070BD01217C20015500BFC3
:1030F000242180200151206806682068006840086B
:1031000040002168086020688068072149068843DC
:10311000284321688860204601F01AFB2068066079
:1031200020218020015100BF00217C20015500BFDB
:103130000020D8E770B504460D4600BF7C20005D36
:10314000012801D1022070BD01217C20015500BF62
:10315000242180200151206806682068006840080A
:1031600040002168086020688068C000C0082843CB
:1031700021688860204601F0EBFA20680660202173
:103180008020015100BF00217C20015500BF00209C
:10319000D9E710B50446002C01D1012010BDA0696B
:1031A000002800D000E000BF80200059002805D191
:1031B00000217C200155204600F02CF8242180209D
:1031C00001512068006840084000216808602046DE
:1031D00001F0B2FB012800D1E0E7A06A002802D08C
:1031E000204601F0F7FA206840680921C9028843A7
:1031F00021684860206880682A21884321688860A7
:10320000206800680121084321680860204601F019
:1032100059FBC3E710B586B00446142101A8FCF79A
:1032200096FF7849206888422FD100BF7648006811
:103230000121890308437449086008460068012198
:1032400089030840009000BF00BF00BF6E484038AF
:10325000406B012108436C49403948630846406B84
:10326000C007C00F009000BF00BF032040020190C4
:10327000022002900020039004900120059001A9F3
:1032800005200007FEF70EFAB9E060492068884281
:1032900030D100BF5C484038C06B0121490408436D
:1032A00059494039C8630846C06B012149040840A8
:1032B000009000BF00BF00BF53484038406B012161
:1032C00008435149403948630846406BC007C00F66
:1032D000009000BF00BFC8130190022002900020A0
:1032E000039004900120059001A905200007FEF736
:1032F000D9F984E04649206888424CD100BF424851
:103300004038C06B0121890408433F494039C863F4
:103310000846C06B012189040840009000BF00BF2F
:1033200000BF39484038406B0421084336494039D2
:1033300048630846406B04210840009000BF00BF6E
:1033400000BF31484038406B022108432E494039C4
:1033500048630846406B02210840009000BF00BF50
:1033600030200190022002900020039004900590EC
:1033700001A92848FEF796F9012080030190022058
:1033800002900020039004900420059001A9224897
:10339000FEF788F933E02149206888422FD100BF29
:1033A00019484038C06B0121C90408431649403907
:1033B000C8630846C06B0121C9040840009000BFE3
:1033C00000BF00BF10484038406B012108430E4940
:1033D000403948630846406BC007C00F009000BFEB
:1033E00000BF03200190022002900020039004906F
:1033F0000420059001A905200007FEF753F906B047
:1034000010BD000000380140401002400044004060
:10341000004800400008005000040050004C0040EC
:1034200000BFFEE7016889690222114049080029AE
:1034300002D000210268916201688969C907C90F39
:10344000012251405140002904D10168896911438A
:10345000026891617047000070B504460D4616463B
:103460002068806910210840000900283FD018E03A
:10347000681C002815D0FEF703FA801BA84201D86B
:10348000002D0ED1606C202108436064412001555D
:1034900000214220015500BF4020015500BF0120FE
:1034A00070BD206880692021084040090028DFD0D5
:1034B00010202168C86120202168C8612046FFF7DC
:1034C000B1FF206840680B49084021684860606C83
:1034D000042108436064202141200155002142203D
:1034E000015500BF4020015500BF0120D8E7002052
:1034F000D6E7000000E800FEFFB581B0044615469F
:103500001E460A9F1B48F2B20023009020460299F3
:1035100000F072F8394620460B9A00F0E2F80028D5
:1035200002D0012005B0F0BD012E03D1E8B2216820
:10353000886211E0FF2000022840001221688862A2
:10354000394620460B9A00F0CCF8002801D0012023
:10355000E8E7E8B2216888620B983B4600224021E8
:103560000090204600F064F8002801D00120D9E73F
:103570000020D7E700200080FFB581B00446154643
:103580001E460A9F1B48F2B2C302009020460299D1
:1035900000F032F8394620460B9A00F0A2F80028D5
:1035A00002D0012005B0F0BD012E03D1E8B22168A0
:1035B000886211E0FF200002284000122168886222
:1035C000394620460B9A00F08CF8002801D00120E3
:1035D000E8E7E8B2216888620B983B460022802128
:1035E0000090204600F024F8002801D00120D9E7FF
:1035F0000020D7E700200080F0B504686568059CCE
:10360000640D0126B6023440084E26432C46B443CE
:103610008D05AD0D1604FF273F043E4035431D4385
:10362000059E35432C4305686C60F0BDFF63FF03C6
:10363000F8B504460E4617461D4619E0681C0028DA
:1036400016D0FEF71DF90699401AA84201D8002DA0
:103650000ED1606C20210843606441200155002197
:103660004220015500BF4020015500BF0120F8BD98
:10367000206880693040B04201D1012000E0002084
:10368000B842DBD00020F2E770B504460D4616467E
:103690001EE0324629462046FFF7DEFE002801D014
:1036A000012070BDFEF7ECF8801BA84201D8002D68
:1036B0000ED1606C20210843606441200155002137
:1036C0004220015500BF4020015500BF0120E8E71E
:1036D000206880692021084040090028D9D00020B6
:1036E000DFE770B504460D46164621E0324629460E
:1036F0002046FFF7B1FE002801D0012070BD681CF4
:10370000002815D0FEF7BCF8801BA84201D8002D78
:103710000ED1606C202108436064412001550021D6
:103720004220015500BF4020015500BF0120E5E7C0
:10373000206880690221084040080028D6D0002077
:10374000DCE700008168024A1140891C81607047F3
:10375000E8FFFF7F8168024A1140491C8160704781
:10376000E8FFFF7F01460868072292051040704776
:1037700001468868C007C00F012250405040704782
:1037800001468868012212071040000F7047014669
:10379000886804221040800870470146C8680322E8
:1037A00092021040002801D1012070470020FCE760
:1037B0008168024A1140091D81607047E8FFFF7F60
:1037C000026807239B059A430A430260704730B59D
:1037D000436904240D4625400724AC40A343042438
:1037E0000C401546A5402B43436130BD0EB500206B
:1037F0000090019002901F481F49086040054860F2
:1038000000211D488160C1600161082141610021E2
:103810000176417681760121C1610021001D017789
:1038200013218901001F4162012189028162012166
:103830002430017200212438016303214163816334
:103840000021243001762438C164FDF77FFB002875
:1038500001D0FDF7A5F909480090002001900290E1
:1038600069460548FDF79EF9002801D0FDF798F953
:103870000EBD000000240140DC03002010000010F9
:1038800008B500BF0A48806B0121084308498863D6
:103890000846806BC007C00F009000BF00BF002229
:1038A00011460920FEF734FB0920FEF725FB08BD71
:1038B0000010024000B587B0142102A8FCF747FCB5
:1038C00000BF6A48406B04210843684948630846C2
:1038D000406B04210840019000BF00BF00BF634857
:1038E000406B20210843614948630846406B202112
:1038F0000840019000BF00BF00BF5C48406B012141
:1039000008435A4948630846406BC007C00F0190FE
:1039100000BF00BF00BF0846406B02210843534967
:1039200048630846406B02210840019000BF00BF79
:1039300000BF4E48406B082108434C494863084685
:10394000406B08210840019000BF00BF0022484999
:103950004848FDF78FFF002247494848FDF78AFF96
:1039600000220321C90205200007FDF783FF002282
:103970007F21C9004248FDF77DFF0720C002029069
:10398000032003900020049002A93A48FDF78AFE24
:1039900004200290032003900020049002A93948DB
:1039A000FDF780FE32480290012003900020049031
:1039B000059002A92F48FDF775FECE200290002049
:1039C0000390049002A92B48FDF76CFE0120000330
:1039D0000290032003900020049002A92848FDF7DC
:1039E00061FE0120C003029000200390049002A910
:1039F0002348FDF757FEFF2001300290002003907E
:103A0000049002A905200007FDF74CFEFF200130BD
:103A1000029000200390049002A91848FDF742FE8E
:103A2000154802900120039000200490059002A9FF
:103A30001248FDF737FE0320C002029001200390D8
:103A400000200490059002A905200007FDF72AFE3A
:103A50007F20C00002900120039000200490059078
:103A600002A90748FDF71EFE07B000BD0010024086
:103A700001070000000800507F020000000C005009
:103A8000000400500014005010B51348134908609A
:103A9000134848600021114881600121C160002164
:103AA000016141618161C1610162FDF75FFF002831
:103AB00001D0FDF775F800210848FDF7E7FE002862
:103AC00001D0FDF76DF800210448FDF716FF00282E
:103AD00001D0FDF765F810BD005800409C0400209F
:103AE0007321600010B50D480D4908600020886002
:103AF0007F210B48C160FF2101610021416181618B
:103B0000C16101218907016200214162FEF7D8FFEE
:103B1000002801D0FDF744F810BD00000028004047
:103B2000E804002000B587B00020039004900590C1
:103B300006900090019002901548164908604020B8
:103B40004860002113488160F921C16000210161B2
:103B50008161FFF7B1F8002801D0FDF721F80120BD
:103B60000003039003A90B48FFF700F9002801D0D8
:103B7000FDF716F8202000900020029069460548C5
:103B8000FFF75EF8002801D0FDF70AF807B000BD86
:103B9000000400401405002010B51A481A490860B6
:103BA000E12040024860C104174881600021C160E3
:103BB00001610C21416100218161C16101624162A9
:103BC0000020114988620846FFF7E3FA002801D077
:103BD000FCF7E6FF00210C48FFF7ACFA002801D003
:103BE000FCF7DEFF00210848FFF774FA002801D037
:103BF000FCF7D6FF0448FFF743FA002801D0FCF792
:103C0000CFFF10BD003801405405002010B51A4800
:103C10001A490860E12040024860C10417488160E9
:103C20000021C16001610C21416100218161C161FC
:103C3000016241620020114988620846FFF7A9FA33
:103C4000002801D0FCF7ACFF00210C48FFF772FA06
:103C5000002801D0FCF7A4FF00210848FFF73AFA3A
:103C6000002801D0FCF79CFF0448FFF709FA002860
:103C700001D0FCF795FF10BD00440040E005002096
:103C800010B5104810490860E12040024860C104A6
:103C90000D4881600021C16001610C21416100215A
:103CA0008161C1610162416200200749886200238D
:103CB0001A4619460448FEF7B3FE002801D0FCF767
:103CC0006FFF10BD004800406C06002010B50F4883
:103CD0000F490860E12040024860C1040C4881603F
:103CE0000021C16001610C21416100218161C1613C
:103CF000016241620020064988620846FFF749FADE
:103D0000002801D0FCF74CFF10BD0000004C004023
:103D1000F80600207047000010B5002819DA1A4A8A
:103D200003071B0F083B9B089B00D2588307DC0E40
:103D3000FF23A3409A438B071B0E8407E40EA34086
:103D40001A43114B0407240F083CA408A4001A517D
:103D500018E00E4A03231B02D21883089B00D25896
:103D60008307DC0EFF23A3409A438B071B0E8407B7
:103D7000E40EA3401A43054B032424021B198408B4
:103D8000A4001A5110BD00001CED00E000E100E0AD
:103D9000024A1060024A11707047000014000020AF
:103DA00018000020FEB505460E461446114800785E
:103DB00001210843074615E00020C04304210123E8
:103DC0002A4600960191029039460B480068FDF79B
:103DD00037FE0A4908700420FDF74EFC241F281DF9
:103DE00085B2361D002CE7DC01DC0020FEBD002082
:103DF000C043FBE718000020140000201900002039
:103E0000FEB505460E46144616E00020C0430421C8
:103E100001232A460096019102900B4801780B4835
:103E20000068FDF7E3FE0A4908700420FDF724FC52
:103E3000241F281D85B2361D002CE6DC01DC002085
:103E4000FEBD0020C043FBE7180000201400002046
:103E500019000020704770B5044600262068C0682D
:103E60004021084000281CD12068C06880210843F8
:103E70002168C860FDF704FD05460AE0FDF700FD76
:103E8000401B7D21C900884203D903260321292034
:103E900001552068C06840210840002801D1032E48
:103EA000ECD1304670BD000070B5044600251648C0
:103EB000C068802188431449C86008468069202171
:103EC0000840002809D12046FEF77CFE002819D0C2
:103ED000032129200155032514E00B488069202186
:103EE0008843094988612046FEF76CFE002803D00C
:103EF0000321292001550325034880692021084317
:103F000001498861284670BD0028004010B50C2288
:103F100022490020FFF746FF0C2220490C311046B1
:103F2000FFF740FF002434E00120C00261001C4A7A
:103F30005052014662001A48801D81526200801D65
:103F40008152A20015490C3188588321C905FCF71C
:103F500062F9A200114918318850A3000A460C3AB0
:103F6000D158A2000D4B9858FCF755F9A2000B4907
:103F700024318850A3000A460C3AD158A200074BBE
:103F80009858FCF748F9A200044930318850601C69
:103F9000C4B2032CC8DBFCF77DFD10BD9C020020E1
:103FA00038000020F0B595B0002724210CA8FCF7BC
:103FB000CEF8002009900A900B9006900790089088
:103FC00000243BE1A100CD4A5058FCF73BFAA20087
:103FD00003910290CA498858FCF712FA01910090A7
:103FE00001F072F90546039B029AFCF78FF90591DF
:103FF0000490FCF73BFAA100C24A5050A100BF4A0E
:104000005058FCF71FFAA20003910290BC492431DA
:104010008858FCF7F5F90191009001F055F9054633
:10402000039B029AFCF772F905910490FCF71EFAC3
:10403000A200B4490C318850A200B0490C31885814
:10404000FCF700FAA20003910290AD490C318858A8
:10405000FCF7D6F9054601F037F901910090039B72
:10406000029AFCF753F905910490FCF7FFF9A200BE
:10407000A44918318850A200A04918318858FCF78B
:10408000E1F9A200039102909D4918318858FCF78C
:10409000B7F9054601F018F901910090039B029AC7
:1040A000FCF734F905910490FCF7E0F9A20095497A
:1040B0002431885094480078C007C00F002801D0F0
:1040C000002C0FD09048007802210840002801D031
:1040D000012C07D08C48007804210840002841D0EA
:1040E000022C3FD1A300874A2432D158A200854B2D
:1040F0009858FCF790F805468449FCF7C9F8A200E7
:1041000080493C318850A2007D4930318858FCF705
:1041100065F90646A2007948303081583046FCF7F0
:104120007AF805467949FCF7B3F80146A2007548CC
:1041300048308150A20072493C318858FCF74EF952
:104140000646A2006D48303081583046FCF763F8CF
:1041500005466E49FCF79CF80146A20069485430B8
:1041600081503EE0A300674A1832D158A200654B47
:104170009858FCF750F805466449FCF789F8A20006
:1041800060493C318850A2005D4930318858FCF7C5
:1041900025F90646A2005948243081583046FCF7DC
:1041A0003AF805465949FCF773F80146A20055480C
:1041B00048308150A20052493C318858FCF70EF932
:1041C0000646A2004D48243081583046FCF723F8BB
:1041D00005464E49FCF75CF80146A20049485430B8
:1041E0008150A300474A3C32D1580998FBF7BAFFE7
:1041F0000990A300434A4832D1580A98FBF7B2FF0E
:104200000A90A3003F4A5432D1580B98FBF7AAFFFB
:104210000B90A2003B48483081583D48FBF7FBFF1C
:104220000546A20037483C3081582846FCF730F854
:10423000A200344978318850601CC4B2032C00DAE3
:10424000C0E63049099808662E480A9941660B99DC
:104250008166416E2E48FBF7DEFF05462948016E58
:104260002846FCF715F8274980314860002720E0F0
:10427000BA002449603188580021FCF713F916D29E
:10428000BA002049603188582249FCF701F80646F7
:104290001F49FBF7FDFF0546BA001A486C308158EC
:1042A0002846FBF75FFFBA0016496C318850781C2E
:1042B000C7B2032FDCDB12492439086F0021FCF759
:1042C000F1F819D20E4A243A116FD06EFBF7E0FFD5
:1042D00011490590FBF79FFF064631460F48FBF753
:1042E000D7FF05460B49FBF796FF064980318860EA
:1042F000002003492439086715B0F0BD9C02002056
:1043000070000020D80200200000002000401C4661
:1043100000007A440000204100007A43286B6E4E72
:1043200070470000FEB500244FE0A2002E498858D7
:10433000FCF766F80191009000F0C6FF0546FCF717
:1043400095F8074639462948FBF7A2FFA2002849FD
:104350008850A20088588321C905FBF799FFA20065
:1043600023490C398850A2001F4918398858FCF796
:1043700047F80191009000F0A7FF0546FCF776F89A
:10438000074639461B48FBF783FFA100184A183A35
:104390005050A3000C32D158A200154B183B98582E
:1043A000FBF739FFA20012490C318850A300104AD4
:1043B000D158A2000E4B183B9858FBF72CFFA200D7
:1043C0000B4918318850601CC4B2032CADDB0C22A1
:1043D000074918390020FFF713FD0C2204490C3956
:1043E0001046FFF70DFDFEBD88000020005043473A
:1043F000B402002000B0B34670B5002493E0A100E1
:104400004F484058A1004F4A5050A1004C480C3032
:104410004158A2004B480C308150A1004848183048
:104420004158A200474818308150A1004448483004
:104430004158A200434848308150A10040482430F0
:104440004158A2003F4824308150A1003C48303000
:104450004158A2003B4830308150A10038483C30E0
:104460004158A20037483C308150A10034485430B4
:104470004158A200334854308150A1003048603088
:104480004158A2002F48603081500021A2002C48E2
:104490008150A2000C308150A2000C308150A2004B
:1044A0000C308150A2000C308150A2000C308150A1
:1044B000A20018308150A2000C308150A100214A86
:1044C0005058FBF796FF06461F49FBF7A4FE05462A
:1044D000FBF7A4FF61001D4A5052A20019490C319C
:1044E0008858FBF786FF06461749FBF794FE0546FA
:1044F000FBF794FF81B2620014480C308152A20095
:10450000104918318858FBF774FF06460E49FBF72F
:1045100082FE0546FBF782FF81B262000B48801DD8
:104520008152601CC4B2032C00DA68E704480838E2
:10453000406F0449C86602480838806F086770BD3C
:10454000C80100204C0000200AD7233B380000207F
:1045500010B5FDF75DFC10BD00B599B034210CA875
:10456000FBF7F5FD0020089009900A900B901C21A4
:1045700001A8FBF7ECFD01204002FDF7D3FC092068
:104580000C90012000040D90012012900220139045
:104590000321149100211591102116910104179106
:1045A000010718910CA8FDF761FF002801D0FCF766
:1045B000F7FA072008900220099000200A900B903B
:1045C000022108A8FDF7DCFD002801D0FCF7E8FA7D
:1045D00008480190002002900390069001204002BC
:1045E000079001A8FDF7CAFC002801D0FCF7D8FA13
:1045F00019B000BD034002000120C00601498860D7
:104600007047000000ED00E010B50248FEF738FCEE
:1046100010BD00001405002010B50268204B984220
:1046200002D0204B984205D170241346A3431A466A
:104630004B681A431A4B98420ED01A4B98420BD033
:10464000194B984208D0194B984205D0184B984204
:1046500002D0184B984206D1032424021346A343E8
:104660001A46CB681A4380241346A3434C6923435C
:104670001A4602608B68C3620B688362084B9842DB
:1046800008D00A4B984205D0094B984202D0094BFA
:10469000984201D10B6903630123436110BD0000FF
:1046A000002C014000040040002000400040014078
:1046B000004401400048014070B50C468168FF2667
:1046C00036020D46B54329461D02154325432943AD
:1046D000816070BD0A468168034B1940072313436C
:1046E00019438160704700008FFFCFFF70B50B4604
:1046F0001446026A056A6D086D0005628169F0263C
:104700000D46B5432946250129430A261546B543DA
:104710002A4615461D432A468161026270BD70B566
:104720000B461446056A1026B54305628169026A84
:104730000F2636030D46B543294625032943A026F7
:104740001546B5432A461D012A438161026270BDA8
:10475000F0B585B004461BA103C9039102901BA1CB
:1047600003C901910090606E002805D101216A20E3
:1047700001536820015322E0082708220492206890
:104780008068072149060840450E20688068460F6A
:104790006A46915D02AA935D049A53431846FBF75B
:1047A000BBFC81B26A2001536A46515D02AA525D88
:1047B0007A431046FBF7B0FC81B26820015305B084
:1047C000F0BD00000101010307010000080402041C
:1047D00008010101018DC907C90F002908D001682E
:1047E0004968012252049143C26A11430268516030
:1047F0000222816A1140022907D101684968D20367
:104800009143026B1143026851600422816A114096
:10481000042907D10168496812049143426B11438E
:10482000026851600822816A1140082907D1016895
:10483000496812039143826B114302685160102250
:10484000816A1140102907D10168896812029143D9
:10485000C26B1143026891602022816A11402029B5
:1048600007D10168896812029143026C1143026802
:1048700091604022816A1140402915D10168496840
:1048800092039143426C1143026851600122120568
:10489000416C914208D10168496803225205914355
:1048A000826C1143026851608022816A1140802924
:1048B00007D10168496812039143C26C1143026831
:1048C0005160704738B50446002188200151FCF73B
:1048D000D7FF0546206800680821084008280BD14A
:1048E00014482B46002289040090204600F06EFBFD
:1048F000002801D0032038BD20680068042108404A
:1049000004280BD10B482B460022090500902046B5
:1049100000F05CFB002801D00320ECE72021802080
:1049200001518420015100BF00217C20015500BFAE
:104930000020E0E7FFFFFF01F0B585B00446002648
:104940000020039002902169A06808436169084330
:10495000E16908430746606E074320680068F9492B
:104960000840384321680860206840680321090333
:104970008843E168084321684860A769206A0743C3
:1049800020688068F04908403843216888602068C2
:10499000C06A00090001616A08432168C86200BF5B
:1049A000EA492068884217D1E94840698007800FAA
:1049B000002806D0012808D0022804D0032808D1F6
:1049C00005E0002507E0022505E0042503E00825B1
:1049D00001E0102500BF28E0DE492068884217D199
:1049E000DB4840690C210840002806D0042808D084
:1049F000082804D00C2808D105E0002507E002258E
:104A000005E0042503E0082501E0102500BF0CE0C7
:104A1000D1492068884201D1002506E0CF492068AD
:104A2000884201D1002500E0102500BF0121C90303
:104A3000E069884270D1002D06D0022D53D0042D9C
:104A40006BD0082D6AD1ECE0FDF78AFC0090606A1B
:104A5000002801D1012038E0606A012801D102203C
:104A600033E0606A022801D104202EE0606A032846
:104A700001D1062029E0606A042801D1082024E041
:104A8000606A052801D10A201FE0606A062801D16A
:104A90000C201AE0606A072801D1102015E0606A36
:104AA000082801D1202010E0606A092801D14020A7
:104AB0000BE0606A0A2801D1802006E0606A0B28BA
:104AC00002D1FF20013000E0012001460098FBF7F1
:104AD0000DFB400061684908401801906168FBF7D0
:104AE00005FB86B2EDE0606A002801D101203BE0C1
:104AF000606A012801D1022036E0606A022801D1F3
:104B0000042031E0606A032801D106202CE0606AAD
:104B1000042804D1082027E0E9E033E0CEE0606A11
:104B2000052801D10A201FE0606A062801D10C2067
:104B30001AE0606A072801D1102015E0606A082891
:104B400001D1202010E0606A092801D140200BE04B
:104B5000606A0A2801D1802006E0606A0B2802D131
:104B6000FF20013000E0012001467D48FBF7BEFA3E
:104B7000400061684908401801906168FBF7B6FA87
:104B800086B29EE0FDF700FC0090606A002801D12B
:104B9000012038E0606A012801D1022033E0606A18
:104BA000022801D104202EE0606A032801D10620EA
:104BB00029E0606A042801D1082024E0606A052801
:104BC00001D10A201FE0606A062801D10C201AE0FA
:104BD000606A072801D1102015E0606A082801D119
:104BE000202010E0606A092801D140200BE0606AB3
:104BF0000A2801D1802006E0606A0B2802D1FF203C
:104C0000013000E0012001460098FBF76FFA4000F8
:104C100061684908401801906168FBF767FA86B23D
:104C20004FE0606A002801D1012038E0606A012865
:104C300001D1022033E0606A022801D104202EE075
:104C4000606A032801D1062029E0606A042801D1A6
:104C5000082024E0606A052801D10A201FE0606A6C
:104C6000062801D10C201AE0606A072801D1102023
:104C700015E0606A082801D1202010E0606A092848
:104C800001D140200BE0606A0A2801D1802006E0B3
:104C9000606A0B2802D1FF20013000E001200146AC
:104CA0000120C003FBF722FA400061684908401860
:104CB00001906168FBF71AFA86B202E001200390C6
:104CC00000BF00BF102E0FD3264886420CD82548BF
:104CD0000F38304004903007400F04990843049087
:104CE00004982168C86061E1012003905EE1002D15
:104CF00006D0022D65D0042D72D0082D71D1FBE0B5
:104D0000FDF72EFB0090606A002801D101204BE0E6
:104D1000606A012801D1022046E0606A022801D1C0
:104D2000042041E0606A032801D106203CE0606A6B
:104D3000042801D1082037E0606A052814D10A2030
:104D400032E00000F369FFCFFFF4FF1100380140AB
:104D5000401002400044004000480040004C004029
:104D60000024F400FFFF0000606A062801D10C2037
:104D70001AE0606A072801D1102015E0606A08284F
:104D800001D1202010E0606A092801D140200BE009
:104D9000606A0A2801D1802006E0606A0B2802D1EF
:104DA000FF20013000E0012001460098FBF79EF94A
:104DB00061684908401801906168FBF797F986B26D
:104DC000E9E0606A002801D101203AE0606A012828
:104DD00001D1022035E0606A022803D1042030E0CE
:104DE0003CE0D5E0606A032801D1062029E0606A32
:104DF000042801D1082024E0606A052801D10A2096
:104E00001FE0606A062801D10C201AE0606A0728BA
:104E100001D1102015E0606A082801D1202010E09F
:104E2000606A092801D140200BE0606A0A2801D19C
:104E3000802006E0606A0B2802D1FF20013000E0EC
:104E4000012001465F48FBF751F9616849084018A5
:104E500001906168FBF74AF986B29CE0FDF794FA8D
:104E60000090606A002801D1012038E0606A0128C2
:104E700001D1022033E0606A022801D104202EE033
:104E8000606A032801D1062029E0606A042801D164
:104E9000082024E0606A052801D10A201FE0606A2A
:104EA000062801D10C201AE0606A072801D11020E1
:104EB00015E0606A082801D1202010E0606A092806
:104EC00001D140200BE0606A0A2801D1802006E071
:104ED000606A0B2802D1FF20013000E0012001466A
:104EE0000098FBF703F96168490840180190616870
:104EF000FBF7FCF886B24EE0606A002801D1012081
:104F000038E0606A012801D1022033E0606A02289B
:104F100001D104202EE0606A032801D1062029E097
:104F2000606A042801D1082024E0606A052801D1C4
:104F30000A201FE0606A062801D10C201AE0606A8E
:104F4000072801D1102015E0606A082801D120202F
:104F500010E0606A092801D140200BE0606A0A284D
:104F600001D1802006E0606A0B2802D1FF200130C9
:104F700000E0012001460120C003FBF7B7F861689B
:104F80004908401801906168FBF7B0F886B202E06A
:104F90000120039000BF00BF102E05D30A488642AF
:104FA00002D82068C66001E00120039001216A2038
:104FB0000153682001530020E0662067039805B084
:104FC000F0BD00000024F400FFFF0000FFB581B039
:104FD00004460D4617460A9E24E0701C002821D086
:104FE000FCF74EFC0499401AB04201D8002E19D1AA
:104FF00020680068FF21A13188432168086020688B
:10500000806840084000216888602021802001518C
:105010008420015100BF00217C20015500BF0320E6
:1050200005B0F0BD2068C0692840A84201D1012028
:1050300000E00020B842D0D00020F1E7F8B50446E7
:1050400028480068002841DC002C3FDD2648006825
:1050500000280DDD24480068401E234908607F2198
:10506000C90522480068FBF77DF82049086035E053
:105070001C490968081BFBF7B1F906461948006886
:10508000FBF7ACF907463146FBF702F90546092064
:1050900015490860294615480068FBF763F806467D
:1050A0001348416F3046FBF75DF811494867886F38
:1050B0007F21C905FBF756F80D49886729467F20EF
:1050C000C005FBF7A0F80949086007E07F21C90582
:1050D00006480068FBF746F8044908600148046088
:1050E000F8BD000004000020080000200C00002093
:1050F000C00100202021020C01D010211046020A1C
:1051000001D010460839020901D01046091F820853
:1051100001D01046891E420801D0881E7047081A27
:10512000704702E008C8121F08C1002AFAD1704770
:105130007047002001E001C1121F002AFBD1704717
:1051400001490860704700003000002010B5064893
:10515000FDF7F0FD092205490548FCF7CFF80020CE
:105160000449087010BD000014050020B803002099
:10517000DC0300201C00002036490978491C354A10
:1051800011707D2252010168914202D801683229D2
:1051900004D231490978491C2F4A11707D225201ED
:1051A0004168914202D84168322904D22A4949789B
:1051B000491C294A51707D2252018168914202D8CE
:1051C0008168322904D224490978491C224A117085
:1051D0002049097850293CD300211E4A11701E49EC
:1051E0000978022909DD00211B4A11701B49097841
:1051F00001221143194A117003E018490978174A2E
:10520000117015494978022909DD0021124A5170AF
:105210001249097802221143104A117005E00F4922
:105220000978022291430D4A11700B4989780229AD
:1052300009DD0021084A91700849097804221143C8
:10524000064A117005E00549097804229143034A92
:105250001170704713000020100000200000002093
:1052600010B5AE210248FEF793FDFEF74FFE10BDCC
:105270009C040020FCF7D8FDFFF76EF9FEF71AFB3F
:10528000FEF7FEFAFEF7B2FAFEF7FEFBFEF72AFC87
:10529000FEF782FCFEF7BAFCFEF7F2FCFEF716FD05
:1052A000FEF740FCFFF752FFFFF7DAFF08E0054882
:1052B0000078012804D1FEF775FE0020014908702E
:1052C000F5E700001C000020F8B506460C46FBF789
:1052D00093F9051E0F4600D00120014349000B48F9
:1052E0004908411AC90F0DD0002E01D0012100E05C
:1052F00000210C4361004908401AC00F02D101206F
:10530000FFF71EFF28463946F8BD00000000F07F79
:10531000000000000000000000000000000000008D
:10532000000000000000000000000000000000007D
:105330000100000002000000030000000400000063
:10534000060000000700000008000000090000003F
:10535000000000000000000000000000000000004D
:105360000100000002000000030000000400000033
:10537000905300080000002038000000225100086F
:10538000C853000838000020B00B0000325100085C
:10539000000000000000000001000000000000000C
:1053A00000000000000000000000000000000000FD
:1053B0000000000004000000010000000024F400D0
:0853C0000000000015000000D0
:04000005080000B936
:00000001FF
