:020000040800F2
:10000000E00B0020D10000080D320008212A000872
:1000100000000000000000000000000000000000E0
:10002000000000000000000000000000A1360008F1
:1000300000000000000000000D3300087D370008BC
:10004000E300000800000000E3000008E3000008EF
:10005000E3000008E3000008E3000008E3000008F4
:1000600000000000190A0008E3000008E30000088F
:10007000E3000008E3000008E300000800000000BF
:1000800029380008E3000008E3000008E300000846
:10009000E3000008E3000008E3000008E3000008B4
:1000A000E3000008E3000008E3000008E3000008A4
:1000B000E3000008E30000080448854600F01EFB4A
:1000C00000480047794A0008C046C046E00B0020BF
:1000D0000448804704480047FEE7FEE7FEE7FEE7E6
:1000E000FEE7FEE719380008B900000830B50B46F6
:1000F000014600202022012409E00D46D5409D4202
:1001000005D31D469540491B254695404019154687
:10011000521E002DF1DC30BD70B5002425460028AC
:1001200001DA01244042002901DA01254942FFF7A2
:10013000DDFFAC4200D04042002C00D0494270BDEF
:10014000D2B201E00270401C491EFBD2704700226F
:10015000F6E710B513460A4604461946FFF7F0FFC6
:10016000204610BDF8B502464A40D40F42004B006D
:1001700052085B089A4202D20246084611464A00DB
:1001800023D0C30D4A00DDB2120EAD1A202D35DA90
:1001900049020126490AF6058A19002C00D052426C
:1001A00020214F1B1146B9402A411018C20D9A4216
:1001B00021D0002C17D0012D08DCDA05801AD20FCF
:1001C0008019D207DBB200F0AFF9F8BDDA05801A6A
:1001D000012340001B06C01880185A428018CA0F1D
:1001E0001043490007E04908C2071143DA05801AA5
:1001F00080194008801800F08FF9F8BD61000122D5
:10020000511A001BF7E70122D2075140AAE7012249
:10021000D2075040A6E7024670B54A40D30FDB072D
:1002200040002DD04A002AD0010E140E0002120206
:100230000919400A520A8418E50104465443000A89
:10024000120A2E045043A4194219200CC543AA18BF
:10025000120C0125AD03521C521912047F392404DB
:1002600000D0521C104301D44000491EC2B20C06FB
:10027000C0092018401C4008802A02D003E000205A
:1002800070BD40084000002900DA0020184370BD0E
:1002900070B502464A40D50F40004A00ED074008BD
:1002A0005208002814D0002A12D0C40DD30D4102E8
:1002B0000120C0055202490A520AE41A091812180C
:1002C0007D34914201D3641C00E04900002C01DA26
:1002D000002070BD0023914201D3891A03434008D6
:1002E00049000028F7D100290AD0914202D101210A
:1002F000C90705E0914201D2012101E00121C94372
:10030000E005C018401900F007F970BD420005D0A3
:100310004200120E52428A4201DB00207047C9059A
:1003200008187047F0B51FB488B00B9909980024DD
:1003300048400999C00F490049080991C0070B9925
:100340000090490049080B9109990898A64608436E
:100350001CD00B990A98084318D009980124400032
:10036000420D4800410D099824050003000B20436D
:1003700009900B980003000B20430B9050181C4968
:100380004018002201901446104605E00020014666
:100390000DB0F0BD032801DA034600E003239C46BC
:1003A000C11A0AAE0AE05F0008ADED5B4F00F75BD3
:1003B0007D430027AA187C41491C5B1E6145F2DD84
:1003C000410004AB5A522104120C0A43240C401C75
:1003D0000828DFDB01980290009970460191009097
:1003E000059B049A0799069800F0E4F8D0E700000E
:1003F0000DFCFFFFC217C10F504010B54018CA07CF
:100400009623002100F090F810BD10B5002296232D
:10041000114600F089F810BD0EB505490291002182
:1004200000910A460B46019100F0C4F803B000BDEC
:1004300033040000C20F410040020123400ADB05E3
:10044000D207090EC0187F2901DA002070479629CB
:1004500003DC9623591AC84001E096398840002AE7
:10046000F4D040427047410040020122400AD205C8
:10047000090E80187F2901DA00207047962903DCD5
:100480009622511AC8407047963988407047C20F6B
:10049000D207400040080BD0C10D0723DB01C9186B
:1004A00040020905400A1143C20840071143704742
:1004B000002001467047CB0FDB07490010B5490803
:1004C00002460A4307D00A0D07240903E401090B79
:1004D000121B002A01DC002010BDC900440F0C4390
:1004E000C100E018D205801800F016F810BD000019
:1004F0000122D207002800DB101A002900DB511A64
:10050000814270470122D207002800DB101A00291F
:1005100000DB511A88427047002904DA401C490068
:1005200001D140084000704770B40024050C05D18B
:100530001024000402D1002921D01124050E01D17C
:1005400000020834050F01D10001241D850F01D1DF
:100550008000A41C002801DB4000641C002908D096
:1005600020252E1B0D46F540A14000D00121294336
:10057000084301061B1B000ADB1D02D5002070BCCE
:100580007047DB05181880180029F8DA401C49006C
:10059000F5D170BC40084000704710B5002B08DA58
:1005A0000024401C614192185B411A4301D140086C
:1005B000400010BDF0B51FB482B005460C0003D05A
:1005C000084603F09FFD02E003F09CFD2030024648
:1005D00000902146284600F0A3F8049B059A0446A3
:1005E0000F4618431143084314D0184610431BD03C
:1005F000009840210A1A1846059900F0A1F805460E
:100600000E46009A0599049800F08AF8084305D030
:10061000012004E02046394607B0F0BD0020C11794
:1006200005430E432C43374300990E986305401A47
:100630007905E40A00220C43FD0A0A3002D50020A5
:100640000146E9E70105101969410C9C0D9D00194F
:100650006941FFF7A2FFDFE7FEB500231A461B1A28
:100660008A4103DB0020014603B0F0BD4A000D03C0
:1006700001212D0B0905520D0D43D10702D10018A0
:100680006D41521E5110FF31FF31013100270446E8
:100690003E46384600970191024601210020090597
:1006A00000F04EF8C3197141F818324684468E4660
:1006B0004A4161462846611A904104D36046241A93
:1006C000954176461F46241900986D41401C0090C4
:1006D0003428E1DDF91930467041091BA84103D2E5
:1006E0000022D243134601E000221346019801057F
:1006F000381C7141FFF751FFB6E70000064C012599
:10070000064E05E0E36807CC2B430C3C98471034B9
:10071000B442F7D3FFF7D4FC9C4C0008BC4C000853
:1007200010B5202A04DB0146203A9140002010BD7C
:10073000914020239C1A0346E3401943904010BD8A
:1007400010B5202A04DB0846203AD040002110BD15
:100750000B46D340D0402024A21A914008431946AA
:1007600010BD10B5846AA16D502211420DD1A06D4B
:10077000012149020843A065206802F0AAFA002876
:100780001AD0A07E002807D016E0A16DC90623D597
:10079000204600F0E2FA10BD2068016809070BD579
:1007A00002F093FA012200280AD0A06D202108430C
:1007B000A065E06D1043E065204600F0B1FA10BD81
:1007C000206841680C2399434160A06DFF210131ED
:1007D00088431043A065EFE7216D496B884710BD42
:1007E00010B5806A816D402211438165C16D04227C
:1007F0001143C16500F0B1FA10BD10B5806A00F078
:10080000ABFA10BDF8B50446206802F05AFA002889
:1008100038D1206881681C4A10271140002908D06F
:10082000A06D3843A065E06D01210843E06501201B
:10083000F8BD8168144E2F3E3140491C8160607EB6
:1008400001281FD000F02CFE054616E002F039FA10
:10085000002804D1206881683140491C816000F083
:100860001FFE401B022808D9A06D3843A065E06D2B
:1008700001210843E0650120F8BD20680168C943F3
:10088000C907E3D10020F8BD17000080F0B58FB094
:1008900081680A9141690B9181690C910168079106
:1008A000C1680891016A0991416804910169059143
:1008B000C069069000215448524C00780E9053486D
:1008C0000C2200780D90504322468C3286185048F6
:1008D0000C2200788646504322468C32801884468B
:1008E0008A0004A8805801900AA88058029007A89E
:1008F000805803904348019D8C301018FF30013020
:1009000083685B1983604369029D5B194361036AD5
:10091000039D5B1903624B00E75A019DED1B019596
:100920001B199F89029DED1B0295DB88039DEB1A25
:100930000393019BC56A5B435B19C362029B856B92
:100940005B435B198363039B456C5B435B194364A7
:10095000019BB35001230E9D8B402B420DD063466B
:100960009B58039D6B43856E5B198366B258039B4E
:100970005A43C36DD218C2650CE063469B58029D72
:100980006B43856E5B198366B258029B5A43C36DF5
:10099000D218C265491CC9B20329A1D3059904988C
:1009A000411A1C484943026D89180165069A059948
:1009B000891A426D494389184165049A0699891A32
:1009C000826D4943891881657046114B401CC0B245
:1009D00018700D990D4C491CC9B2217000221428C1
:1009E00000D91A70142900D922700AA803F04CFC0F
:1009F00020780C21484303498C31085803F03CFB14
:100A00000FB0F0BD4C000020000000204800002086
:100A100049000020D801002010B5024800F08EFBEC
:100A200010BD00008007002010B504462078142176
:100A30000838FFF75BFB216C064A89088900891892
:100A4000616404498031A1641C2108400121814076
:100A5000E16410BD000802400179074B491E8A007D
:100A6000D2180265044A403242658A07920F01217A
:100A7000914081657047000000090240F0B5856C27
:100A8000C46C6C60046D002C02D0456D846D6C608C
:100A90000B4F7C68056C1C2635400126AE40344364
:100AA0007C60046863608368102B04D003689960DD
:100AB0000068C260F0BD03689A600068C160F0BD64
:100AC000000002407047000010B501460548C06CA8
:100AD000002904D048436421FFF71EFB10BD00200D
:100AE000C04310BD68030020FEB504460D4600203B
:100AF000019000900127FF0726464036307D0128EF
:100B000010D001203075206802F0DFF800280BD0EB
:100B1000A06D20210843A0650120019000203075C0
:100B20000198FEBD0220FEBD686802287ED02169C2
:100B3000B94202D0734A914207D120682968826A7B
:100B40004903490B0A4382626EE0C106C90E0F20B9
:100B5000226E884082432868430303D0C30704D031
:100B600000204BE04000C00E48E0830701D5012083
:100B700044E0430701D5022040E0030701D50320EC
:100B80003CE0C30601D5042038E0830601D50520EA
:100B900034E0430601D5062030E0030601D50720E6
:100BA0002CE0C30501D5082028E0830501D50920E4
:100BB00024E0430501D50A2020E0030501D50B20E0
:100BC0001CE0C30401D50C2018E0830401D50D20DE
:100BD00014E0430401D50E2010E0030401D50F20DA
:100BE0000CE0C30301D5102008E0830301D51120D8
:100BF00004E0400301D5122000E0002088400243B9
:100C000022666968E2698808401C90420CD8206816
:100C10002F68826AC906C90E0F238B409A43BB0016
:100C20001B0F8B401A438262206800E03DE0AA68F7
:100C30002968436909028B431140490149090B4363
:100C400043612A68002A00DB68E72F480168072310
:100C50009B0519402D4B9A4213D10B0211D4D2029D
:100C6000114302F03EF82B4829490068FFF73EFA8D
:100C7000009002E00098401E009000980028F9D1F2
:100C80004CE7254B9A4206D1CB0104D49202114382
:100C900002F027F842E7214B9A42D5D14A02D3D439
:100CA0005A02114302F01DF838E72069B84202D019
:100CB0001449884206D120682968826A4903490B91
:100CC0008A4382622A68002ABEDA0F480168072335
:100CD0009B0519400D4B9A4204D1D202914302F078
:100CE00000F81BE70C4B9A4204D19202914301F0A9
:100CF000F8FF13E7094B9A42A6D15202914301F043
:100D0000F0FF0BE70400008008270140001000B04E
:100D1000400D030040000020004000B8002000B457
:100D200010B50B49884212D108462438FFF7AEFDB2
:100D3000084C6088401C80B260800146FF399139C0
:100D400005D102F0AFFC002060800120207010BDB2
:100D5000340400203000002070477047FEB5044680
:100D600000260020029001900090002C03D0A06D7E
:100D7000002802D008E00120FEBD204600F022F944
:100D80000020E0655421085520688168C900C90F1A
:100D9000002914D18168834A1140012212071143AE
:100DA0008160824880490068FFF7A0F94000009008
:100DB00002E00098401E009000980028F9D12068B9
:100DC0008168C900C90F0127002907D1A16D102230
:100DD0001143A165E16D3943E165012601F075FF1D
:100DE000A16DC90601D4002806D0A06D10210843CA
:100DF000A06501263046FEBDA06DFF21013188436C
:100E000002210843A065206801F05BFF002822D181
:100E10002068C16818229143A2681143C16020680C
:100E20000169626889008908920F92071143016184
:100E300003216068890788420DD0494288420AD060
:100E40004900884207D05A4A91680F239B0499436E
:100E5000184001439160207EA27E8503607EC0031E
:100E6000054350030543206B002802D001200003F6
:100E700000E000200543E06805432069002802DA0D
:100E80004000400801E00120400521460543203193
:100E9000087B40000543029805430878012808D1E3
:100EA000002A1DD0A06D20221043A065E06D3843BC
:100EB000E065606A002806D0FF23C1331840A26AAB
:100EC000284302431546626C206CE36C1043A26C0D
:100ED0001A431043019A1043097F012904D004E00A
:100EE000012000040543E4E738432168CA68314B18
:100EF0001A402A43CA6021680A692F4B1A400243EC
:100F00000A610021626B206801F0F2FE2B49A26B9E
:100F1000206801F0EDFE2069002829D00121490553
:100F2000884217D10020216E82000B46D340DA435D
:100F3000120702D0401C0828F6D301281FD02068D1
:100F4000826A227F521E5207D30E0F22D2439A404A
:100F50000A4382622068C06819490840A84215D136
:100F60000020E065A06D80088000401CA06541E77E
:100F70002068816A0F22D24311438162EAE7206828
:100F8000816A0F22D24311438162E3E7A06D0221FF
:100F9000884310210843A065E06D3843E0650126D1
:100FA00028E70000E8FFFF7F400D0300400000201D
:100FB000002701401902FEFF02FCFFDF04FFFF07CC
:100FC000E7FF3F8370B586B00546142101A8FFF7FF
:100FD000BEF826492868884245D125480268012183
:100FE00009050A4302600068084000902049403922
:100FF000486B012210434863486B104000904A6BD5
:10100000022002434A63496B01400091F82001909D
:101010000324029400260396052001A9000700F08E
:101020009FF9144801900294039601A9124800F018
:1010300097F9134C1148206005206060A660E660B7
:1010400080202061800060618000A0612020E0613C
:1010500000022062204600F0D3F8002801D0FFF7FC
:1010600031FD2C65A56206B070BD00000024014072
:101070004010024007040000000400500800024035
:1010800080070020F7B50446206801F01EFE002806
:1010900001D00220FEBD25464035287D012807D01D
:1010A00001272F752068C1681F4EC90702D00EE0C6
:1010B0000220FEBD01F005FE002804D020688168F2
:1010C0003140891C81602068C1683943C160204675
:1010D000FFF798FB0028ECD1A06D14490840FF21D0
:1010E00001310843A0650020E065226D1049D162FE
:1010F000226D10491163226D0F49516322681C2132
:1011000011602875206841681022114341602168F0
:10111000206D4031029B019A00F0C4F821688A6872
:101120003240121D8A60FEBDE8FFFF7FFEF1FFFF27
:1011300063070008FB070008E1070008F0B42F4E22
:10114000336801680C68056C1C22154004221746A0
:10115000AF401F4213D0670711D50B689B0602D41E
:101160000B6893430B607368016C1C2421408A4018
:1011700013437360016B00293ED0F0BC084702277F
:10118000AF4002461F402032002F19D0A70717D5C5
:101190000B689B0605D40B680A24A3430B6001214E
:1011A00051717368046C1C210C400221A1400B4357
:1011B000736000211171C16A00291DD0F0BC08477D
:1011C0000827AF401F4217D0230715D50B680E2400
:1011D000A3430B607368046C1C210C4001210D4675
:1011E000A5402B437360C163517100211171416BA4
:1011F000002901D0F0BC0847F0BC70470000024055
:1012000070B50446002C3DD02448256814212818C8
:10121000FEF76CFF800020640220264620367071A5
:1012200028681F4908402860A168E0686269014396
:10123000206910430143A0690143E0690143206A2A
:10124000014320680268114301602046FFF7ECFB70
:101250000121A06889030025884200D16560616C86
:1012600020790860A16CE06C48606068401E03282B
:101270000AD82046FFF7F0FB206D0560616DA06D78
:10128000486004E0012070BD25656565A565E563DE
:10129000012070713571002070BD0000F8FFFDBFA6
:1012A0000F80FFFFF8B504468C4600272546203501
:1012B000287901280AD001202871687900260128A0
:1012C00006D02E7102272E713846F8BD0220F8BDD7
:1012D00002206871E66320680168490849000160DE
:1012E00061462046FFF7CAFB206B002805D0206826
:1012F00001680E221143016009E0206801680422A0
:1013000091430160206801680A2211430160606C0A
:101310000168CA03084902D502680A430260206DC9
:10132000002802D002680A43026020680168012296
:1013300011430160C7E700000001000070B50446DA
:1013400000F0AEF80546601C02D00448406824183E
:1013500000F0A6F8401BA042FAD370BD3400002074
:10136000F0B5002288E001249440A4462340002BDD
:101370007ED04C68022C01D0122C0CD1D408A400D1
:1013800027183D6A5407E40E0F26A640B5430E69A0
:10139000A6402E433E62066855000324AC40A64397
:1013A0000F79BF07BF0FAF40374307604E68012E6C
:1013B00005D0022E03D0112E01D0122E0ED1866838
:1013C000A643CF68AF403743876047686646B74358
:1013D0000E79F606F60F96403E434660C668A64371
:1013E0008C68AC403443C4604C68E40043D5950835
:1013F000244CAD002F193D6E9407E40E0F26A64035
:10140000B54305263607B04201D100260FE01E4E37
:10141000B04201D101260AE01C4EB04201D10226A1
:1014200005E01B4EB04201D1032600E00526A64090
:101430002E43144D3E66134E803634689C434F68ED
:10144000FF0300D51C43346074689C434F68BF039E
:1014500000D51C4374602C689C434E68F60200D58E
:101460001C432C606C689C434E68B60202D500E0B9
:1014700001E01C436C60521C0B681C46D44000D039
:1014800071E7F0BD00180240000400500008005051
:10149000000C0050002A01D08161704781627047C2
:1014A00001488068704700003400002070B5024693
:1014B00040325378202B01D0022070BD1378012BCD
:1014C00019D0012414702423537003681D68A543A8
:1014D0001D6003681D682603B5431D6003681D6811
:1014E0000D431D6000680168214301602020507099
:1014F0000020107070BD022070BD70B502464032F1
:101500005378202B01D0022070BD1378012B18D006
:10151000012515702423537003681C68AC431C60BC
:1015200003681C680F263602B44309022143196080
:10153000006801682943016020205070002010706D
:1015400070BD022070BD000070B50446002C06D0AE
:101550002546403568780026002802D005E00120A5
:1015600070BD2E70204600F0BDF924206870206800
:1015700001684908490001600F2160680906884335
:1015800021680861206882680121C9038A4382605A
:10159000E068012809D02122A06892021043226845
:1015A0009060E068022805D008E0A068226808433F
:1015B0009060F6E701202268C0025060206842680F
:1015C0000F4B1A4342602068C2688A43C260616957
:1015D00020690843A169090208432168C860216A9B
:1015E000E06908432168086020680168012211430E
:1015F00001606664202068702663AE70002070BDB4
:1016000000800002FFB583B0044625464035687867
:10161000202802D0022007B0F0BD0C98002815D079
:101620000D98002812D02878012814D001202870A5
:10163000FFF736FF064601221923D1032046009604
:1016400001F0C8FA002808D00120E4E70120400298
:1016500060640120DFE70220DDE72220687040207F
:10166000A870002767640C9860620D9860856763B6
:101670000E980090019604A90EC9204601F022FAA6
:10168000002802D02F700120C5E7618D3848FF295E
:1016900009D9FF222285012300901B0620460499C8
:1016A00001F084FA0AE0618D21850090208D0123EC
:1016B000C2B25B062046049901F078FA0096002237
:1016C000042120460E9B01F085FA002801D001205C
:1016D000A1E72068406A616A0870606A401C606225
:1016E000208D401E80B22085618D491E6185618DEF
:1016F000002924D0002822D10096002280212046F3
:101700000E9B01F067FA002801D0012083E7608D6D
:10171000FF2809D9FF22228501231B0600972046B6
:10172000049901F043FA0AE0608D20850097208D2E
:101730000123C2B25B062046049901F037FA608D9E
:101740000028BBD1324620460E9901F06AFA0028E3
:1017500001D001205FE720682021C1612068426834
:10176000044B1A4042606970AF702F70002052E73E
:101770000024008000E800FEFFB583B00446254643
:1017800040356878202802D0022007B0F0BD0C98C0
:10179000002815D00D98002812D02878012814D0E0
:1017A00001202870FFF77CFE074601221923D10390
:1017B0002046009701F00EFA002808D00120E4E747
:1017C0000120400260640120DFE70220DDE72120E4
:1017D00068704020A870002666640C9860620D98BE
:1017E000608566630E980090019704A90EC9204693
:1017F00001F0A2F9002802D02E700120C5E7608D0B
:10180000FF2809D9FF22228501231B0600962046C6
:10181000049901F0CBF90AE0608D20850096208DB7
:101820000123C2B25B062046049901F0BFF93A4693
:1018300020460E9901F01CFA002801D00120A4E7EF
:10184000606A216800788862606A401C6062608D0E
:10185000401E6085208D401E80B22085618D00294C
:1018600024D0002822D100970022802120460E9B00
:1018700001F0B0F9002801D0012086E7608DFF2833
:1018800009D9FF22228501231B06009620460499D0
:1018900001F08CF90AE0608D20850096208D0123EF
:1018A000C2B25B062046049901F080F9608D0028E1
:1018B000BDD13A4620460E9901F0B3F9002801D077
:1018C000012062E720682021C16120684268044B42
:1018D0001A4042606970AE702E70002055E700001B
:1018E00000E800FE10B586B00446142101A8FEF7FA
:1018F0002EFC1249206888421ED1114C616B0220D7
:1019000001436163616B014000910520C0020190B9
:1019100012200290012003900020049006200590E0
:1019200001A90848FFF71CFDE16B01208005014378
:10193000E163E16B0140009106B010BD005800402A
:101940000010024000040050024881684268891873
:10195000816070473400002010B5002407480168FA
:10196000821511430160002000F00AF8002801D020
:10197000012401E000F02CF8204610BD00200240B8
:1019800070B505460024104E7168002919D07D20DD
:10199000C000FEF7ABFB01460C480068FEF7A6FB53
:1019A00000F026FD002801D001240BE0042D06D212
:1019B00000222946501E00F02BF8356002E0012479
:1019C00000E00124204670BD3400002040000020CB
:1019D00008B5094801680122114301600068104000
:1019E000009005484038C26B01040A43C263C06BD3
:1019F0000840009008BD000040100240C106C90E1A
:101A000001208840014908607047000000E100E0C3
:101A100010B501F00DFC10BD10B50F4C216803226C
:101A20005202914301432160C11FFF39FA390ED19F
:101A30000A480621006848430949FEF757FB401C45
:101A400002E0002805D0401E61694905F9D4002054
:101A500010BD032010BD00000070004040000020B9
:101A600040420F00FEB50446002500272068594E6D
:101A7000800367D50020019056484038C06BC000F5
:101A80000AD454484038C16B02041143C163C06B8F
:101A900010400090012001904F48016882151143C9
:101AA0000160FFF7FDFC029007E0FFF7F9FC0299E7
:101AB000401A022801D9032503E047480068C00501
:101AC000F3D5002D04D02F460198012834D039E0F9
:101AD000F06903210902084000280FD0A169814262
:101AE0000CD0F069032109028843F269012109043D
:101AF0000A43F261F2698A43F261F061C0070FD0D4
:101B0000FFF7CEFC029008E0FFF7CAFC0299411AE9
:101B10003248814201D9032502E0F0698007F3D5FC
:101B2000002D01D02F46CFE7F06903210902884339
:101B3000A1690843F061C7E726484038C16B020439
:101B40009143C1632078C00705D07069616880083F
:101B50008000084370612078800705D570690C21EA
:101B60008843A168084370612078400606D57069F3
:101B7000032109038843E168084370612088400419
:101B800010D5706961698000800808437061012187
:101B900060698907884205D10E484038C2688913B8
:101BA0000A43C2602088000512D5706903218903A9
:101BB00088432169084370610121206989038842B3
:101BC00006D104484038C168012212041143C160A3
:101BD0003846FEBD401002400070004088130000EF
:101BE000F8B504460D46002C0FD054480068400755
:101BF000400FA84218D2514F3868C008C00028438F
:101C00003860FFF74DFC064609E00120F8BDFFF7FC
:101C100047FC811B4A48814201D90320F8BD38683E
:101C20004007400FA842F2D12068464E81070DD5EB
:101C3000400704D5B068072109030843B060B068C5
:101C40000F2109028843A1680843B0602078C007CB
:101C50003BD0606801280CD002280FD0002812D099
:101C600038494031032813D0C969890715D40120A8
:101C7000F8BD3168890310D40120F8BD31688901AD
:101C80000BD40120F8BD3168490506D40120F8BD08
:101C9000096A890701D40120F8BDB168C908C900E3
:101CA0000143B160FFF7FCFB074607E0FFF7F8FBD5
:101CB000C11B2348814201D90320F8BDB0683821F7
:101CC00008406168C9008842F0D11C480168490792
:101CD000490FA94216D90168C908C9002943016002
:101CE000FFF7DEFB074607E0FFF7DAFBC11B1448EE
:101CF000814201D90320F8BD104800684007400F19
:101D0000A842F1D12078400706D5B168072000032A
:101D10008143E0680143B16000F036F8B1683C22CD
:101D200089091140084A515CC906C90EC8400749D3
:101D3000086007480068FFF723FEF8BD0020024056
:101D400088130000001002403C4C000840000020B6
:101D50003400002001480068704700004000002067
:101D600000B5FFF7F7FF0649896807221203114003
:101D7000090B044A8900515CC906C90EC84000BD60
:101D8000001002407C4C000810B5244CA068244A86
:101D90008006400F16D0A0688006410F5010012920
:101DA0000FD0A1688906490F022914D0A0688006C7
:101DB000400F04282CD0A0688006400F03282AD0AA
:101DC000002010BD206801218004400F8140104692
:101DD000FEF78CF910BDE1688B079B0FE16849069F
:101DE000490F491C032B0CD01046FEF77FF9E16820
:101DF0004904490E4843E168490F491CFEF776F94A
:101E000010BDFEF773F9E1684904490E4843F2E753
:101E10000120C00310BD7D20000210BD0010024053
:101E20000024F400FEB50446002C0DD0207838279D
:101E3000C007FB4E002851D0B0683840F1688907D0
:101E4000890F102802D003E00120FEBD03290AD02B
:101E5000082808D001216068090488420BD1306845
:101E6000084330601AE03068800337D56068002886
:101E700034D10120FEBD052301221B0492049842A7
:101E800006D130681043306030680843306005E0A8
:101E90003068884330603068904330606068002864
:101EA0000ED0FFF7FDFA054606E0FFF7F9FA401BF2
:101EB000642801D90320FEBD30688003F5D50DE00C
:101EC000FFF7EEFA054606E0FFF7EAFA401B642842
:101ED00001D90320FEBD30688003F5D42078800747
:101EE0006DD5B0683840F1688A07920F0721C902A2
:101EF000102801D1022A12D0002810D0E068002852
:101F00004AD0306888432169084330603068FF2137
:101F1000013108433060FFF7C3FA054630E032680C
:101F2000520502D5E268002A0AD072687F231B029C
:101F30009A4363691B021A437260002802D010E0C2
:101F40000120FEBD30688843216908433060306855
:101F500001218004400F8140B248FEF7C7F8B24922
:101F60000860B2480068FFF70BFD002827D0012069
:101F7000FEBDFFF795FA401B022801D90320FEBDE4
:101F800030684005F5D570687F2109028843616992
:101F900009020843706012E03168FF20013081437C
:101FA0003160FFF77DFA054606E0FFF779FA401B3E
:101FB000022801D90320FEBD30684005F5D4207801
:101FC0009B4D000734D5B0688006400F03280AD027
:101FD000A06900281AD0286A012108432862FFF767
:101FE0005FFA07460EE0286A800721D5A06900281D
:101FF0001ED10120FEBDFFF753FAC01B022801D9F4
:102000000320FEBD286A8007F5D511E0286A400844
:1020100040002862FFF744FA074606E0FFF740FA5F
:10202000C01B022801D90320FEBD286A8007F5D411
:102030002078400775D500200190B0688006400FD9
:10204000042818D0F06BC00009D4F16B0120000700
:102050000143F163F16B014000910120019075484B
:102060000168C9051AD40168821511430160FFF7A0
:1020700017FA07460EE0E869800752D5A0680028E5
:102080004FD10120FEBDFFF70BFAC01B022801D97A
:102090000320FEBD67480068C005F4D5A06801288C
:1020A00010D00421052812D0E86940084000E861FA
:1020B000E8698843E861A06800281CD0FFF7F0F9C0
:1020C000074614E0E86901210843E861F3E7E8699D
:1020D0000843E861E86901210843E861EBE7FFF79D
:1020E000DFF9C11B5448814201D90320FEBDE869D4
:1020F0008007F4D50EE0FFF7D3F9074607E0FFF7B6
:10210000CFF9C11B4C48814201D90320FEBDE869CB
:102110008007F4D40198012803D1F16B00078143B3
:10212000F163E06900284DD0B1688906490F0229A2
:1021300054D001273F0602280ED03068B8433060E3
:10214000F06880088000F060F0683C490840F0606A
:10215000FFF7A6F904463DE03068B8433060FFF76A
:102160009FF9054606E0FFF79BF9401B022801D9BD
:102170000320FEBD30688001F5D4616A206AA26A3E
:102180000843E16A120211430843216B0843F168D6
:102190002B4A11400843F060306838433060F068E3
:1021A000012109070843F060FFF77AF9044606E0C9
:1021B000FFF776F9001B022801D90320FEBD306825
:1021C0008001F5D540E0FFF76BF9001B022801D92B
:1021D0000320FEBD30688001F5D435E0012831D000
:1021E000F068226A8107890F914216D17021626AD4
:1021F0000140914211D17F21A26A090201401202DD
:1022000091420AD11F214904E26A0140914204D15E
:10221000400F216B4007884216D00120FEBD000010
:10222000001002400024F400400000203400002090
:10223000401002400070004088130000FFFFFEEFD6
:102240008C80C11F0120E9E70020E7E7FFB581B0DE
:1022500004460D461646002C06D020468030074620
:102260000068002803D008E0012005B0F0BD00217F
:102270007C200155204600F033FB24203860206884
:102280000168490849000160204601F01FFC01284F
:1022900024D0A06A002802D0204601F07DFB2068EF
:1022A0008168012292031143816020688168520095
:1022B0009143294381607005049909040143206812
:1022C0000268074B1A400A43026020680168012235
:1022D00011430160204601F0C5FBC6E70120C4E7B9
:1022E000FFFF00FC70B504460120002C49D02546B4
:1022F0002035687A002806D128721120C00260605B
:10230000204600F041F8022068722168CA20486225
:10231000216853204862204600F0F9FF002829D1A7
:1023200020688169174A1140816120688169A2682B
:10233000E369114362691A4311438161216820698D
:10234000086120680169A2891204114301612046D5
:1023500001F000F800280DD121688A69D200D20866
:102360008A6121688A69636AA6691A43236A3343CA
:102370001A438A612268FF215162002801D101219C
:10238000697270BDBFFF8FFB08B5006809498842BC
:102390000ED10948C1690122D2031143C161064827
:1023A0004038C26B01150A43C263C06B08400090FD
:1023B00008BD0000002800404010024070B50546EE
:1023C0002868C168A0229143C160FFF769F80446FC
:1023D0007D26F60006E0FFF763F8001BB04201D946
:1023E000032070BD2868C0688006F4D5002070BD49
:1023F00010B50949401E884201D9012010BD074C83
:1024000060610321081F00F013FF0020A061072076
:102410002061002010BD0000FFFFFF0000E000E091
:102420007047704770470000F0B502462032137FB6
:10243000012B1DD0012717770223537704686368A7
:10244000A5680C4EB44204D10F263605B3434E683E
:1024500033437026B3430E681E4380239D4389682F
:102460002943666000688160577700201077F0BDCF
:102470000220F0BD002C014070B50446002C05D0B0
:1024800025462035687F002802D006E0012070BD77
:1024900000202877204600F00BF802206877211DE5
:1024A000206801F0C9F901206877002070BD0000A4
:1024B00008B50068094988420FD10948C26B02215A
:1024C0000A43C263C06B08400090002211461020EE
:1024D000FFF79EFA1020FFF791FA08BD00040040B4
:1024E0000010024010B50223014620310A464B7706
:1024F00001688868064B18400123062805D01C0493
:10250000A04202D00868184308605377002010BD2D
:102510000700010070B5044625462035287F0128B4
:1025200017D001262E770220687720688268314B09
:102530001A40FF231B029A4382600A68502A32D055
:102540000EDC202A4DD006DC002A4AD0102A4CD1BD
:1025500047E0022070BD302A43D0402A45D136E002
:10256000602A2AD0702A12D001231B03D01A3CD033
:1025700098423AD1CB684A688968206801F0A0F98E
:102580002068816801229203114381602DE0CB68AD
:102590004A688968206801F093F920688168772289
:1025A0001143816021E0CA684968206801F09EF902
:1025B0005021206801F090F917E0CA684968206846
:1025C00001F0A5F96021206801F086F90DE0CA68E4
:1025D0004968206801F08AF94021206801F07CF9FF
:1025E00003E01146206801F077F96E770020287724
:1025F00070BD000088FFCEFF7047000070B5044634
:10260000206801690025C9438907002916DBC168D4
:10261000C943890712D4E91E01610120207720688F
:102620008069800703D02046FFF7E6FF05E02046DB
:1026300000F0AAF8204600F0A8F825772068016984
:10264000C943490718D4C168C943490714D40421B0
:10265000C943016102202077206880698005800FCE
:1026600003D02046FFF7C8FF05E0204600F08CF8B5
:10267000204600F08AF8257720680169C9430907D8
:1026800017D4C168C943090713D40821C94301619C
:10269000042020772068C069800703D02046FFF718
:1026A000ABFF05E0204600F06FF8204600F06DF823
:1026B000257720680169C943C90618D4C168C94390
:1026C000C90614D41021C94301610820207720686D
:1026D000C0698005800F03D02046FFF78DFF05E01D
:1026E000204600F051F8204600F04FF8257720688A
:1026F0000169C943C90708D1C168C943C90704D1E1
:10270000891E0161204600F041F820680169C94333
:10271000090609D4C168C943090605D48021C94303
:1027200001612046FFF77DFE20680169C943C905A4
:1027300008D4C168C943090604D41249016120467E
:10274000FFF76EFE20680169C943490609D4C168D4
:10275000C943490605D44021C9430161204600F020
:1027600016F820680169C943890609D4C168C943BC
:10277000890605D42021C94301612046FFF752FE96
:1027800070BD0000FFFEFFFF704770477047704745
:1027900030B5014660310A7F012A18D001220A773C
:1027A00024230246803214461360026813681568B9
:1027B0006D086D00156001225207934300224266A6
:1027C00000680360202020600A77002030BD0220CE
:1027D00030BDF8B5044625466035287F01281CD059
:1027E000012028772420264680363060206807683C
:1027F00002685208520002602068826807235B0664
:102800009A430A438260204601F094F820680760EA
:102810002020306000202877F8BD0220F8BDF8B5F0
:10282000044625466035287F01281BD001202877E3
:1028300024202646803630602068076802685208E7
:102840005200026020688268D200D2080A43826087
:10285000204601F06FF820680760202030600020DB
:102860002877F8BD0220F8BD70B50446002C06D0CC
:102870002046803005460068002802D007E001208D
:1028800070BD00217C200155204600F029F824204D
:10289000286020680168490849000160204601F06D
:1028A00015F9012819D0A06A002802D0204601F0AD
:1028B00073F8206841680922D20291434160206880
:1028C00081682A22914381602068016801221143B6
:1028D0000160204601F0C6F870BD012070BD000007
:1028E000F0B587B00446142102A8FDF730FC444E31
:1028F0002268052000244349012302250007B24233
:102900001AD1404A403216689F033E43166012684F
:102910003A4001924A6B1A434A63496B194001914C
:10292000032149020291039504940594069302A998
:10293000FEF716FD07B0F0BD334EB24218D1CA6B98
:10294000012676043243CA63CA6B324001924A6B55
:102950001A434A63496BC907C90F01912B49029178
:10296000039504940594069302A9FEF7F9FCE1E7A8
:10297000274F0426BA4227D1C86B32041043C863DC
:10298000C86B10400190486B30434863486B30403F
:102990000190486B28434863486B284001903020E1
:1029A0000290039504940594069402A91948FEF731
:1029B000D7FC30030290039504940594069602A96F
:1029C0001548FEF7CDFCB5E7144FBA42B2D1CF6B34
:1029D0000122D2041743CF63CF6B174001974A6B94
:1029E0001A434A63496BC907C90F01910321029138
:1029F000039504940594069602A9FEF7B1FC99E7A5
:102A000000380140001002400044004004800000F3
:102A1000004800400008005000040050004C0040F6
:102A2000FEE701688A69D243920701D400228A62D4
:102A300000688169C943C90703D081690122114334
:102A400081617047F8B504460E46174620688069D4
:102A5000C043C00632D42546403508E0701C06D07D
:102A6000FEF71EFDC01BB0421ED8002E1CD02068F1
:102A70008069C0438006F1D421681020C8612068B5
:102A80002026C6612046FFF7CCFF206841680C4A2B
:102A900011404160606C0421084360646E70002046
:102AA000A87028700120F8BD616C2020014361648A
:102AB00068700020A87028700120F8BD0020F8BDC3
:102AC00000E800FEF8B5079F044616461D46194863
:102AD0000090EAB20023204600F068F83A4620460B
:102AE000069900F0C5F8002801D00120F8BD28465D
:102AF000F5B201280BD02168300A88623A46204698
:102B0000069900F0B5F8002804D00120F8BD20682F
:102B1000856201E0206885620097002240212046FE
:102B2000069B00F057F8002801D00120F8BD0020D6
:102B3000F8BD000000200080F8B5079F0446164647
:102B40001D4619480090C302EAB2204600F02EF854
:102B50003A462046069900F08BF8002801D0012063
:102B6000F8BD2846F5B201280BD02168300A8862EA
:102B70003A462046069900F07BF8002804D0012050
:102B8000F8BD2068856201E0206885620097002218
:102B900080212046069B00F01DF8002801D001206E
:102BA000F8BD0020F8BD000000200080F0B5059CB5
:102BB00000684568660D8905890D054F12041143AB
:102BC0003E431943B54321430D434560F0BD00002A
:102BD000FF63FF03F8B505460E4617461C4609E09D
:102BE000601C07D0FEF75CFC0699401AA0420BD887
:102BF000002C09D028688169304688430FD0002016
:102C0000B842EDD00020F8BD696C20200143696412
:102C1000403568700020A87028700120F8BD0120A0
:102C2000EEE770B504460D4616460FE032462946DB
:102C30002046FFF707FF002801D0012070BDFEF7F6
:102C40002FFC801BA84208D8002D06D02068806980
:102C5000C0438006EAD4002070BD616C202001438F
:102C60006164403460700020A0702070012070BD4D
:102C700070B505460C46164611E0324621462846F8
:102C8000FFF7E0FE002801D0012070BD601C06D0D7
:102C9000FEF706FC801BA04208D8002C06D028684E
:102CA0008069C0438007E8D4002070BD696C202093
:102CB00001436964403568700020A87028700120C5
:102CC00070BD8068C007C00F704780684007C00FA4
:102CD0007047C0680005800F01D0002070470120B8
:102CE0007047026807239B059A430A4302607047B6
:102CF00010B543690424214007248C40A3438A4033
:102D00001343436110BD00003EB5002400940194BC
:102D100002943D483B490160490541608460C460BC
:102D2000890A016108254561047644768476C56187
:102D3000014620310C70132292014262EA01826244
:102D400001220A7304630322426382630C77C46422
:102D5000FEF704F8002801D0FDF7B4FE2B480090E0
:102D60000194029469462848FDF7BEFE002801D070
:102D7000FDF7A8FE264800900420019069462248ED
:102D8000FDF7B2FE002801D0FDF79CFE01956946D3
:102D90001D48FDF7A9FE002801D0FDF793FE0C2089
:102DA000019069461848FDF79FFE002801D0FDF705
:102DB00089FE1020019069461348FDF795FE002812
:102DC00001D0FDF77FFE1420019069460E48FDF703
:102DD0008BFE002801D0FDF775FE18200190694692
:102DE0000948FDF781FE002801D0FDF76BFE1C208D
:102DF000019069460448FDF777FE002801D0FDF7F1
:102E000061FE3EBD00240140340400200008002C77
:102E10000800000C08B50848816B0122114381634A
:102E2000806B10400090002211460920FEF7F0FD53
:102E30000920FEF7E3FD08BD00100240F0B587B0A1
:102E4000142102A8FDF783F95448406B0426534926
:102E5000304348630846406B304001900846406B61
:102E600020214E4A084350631046406B08400190B1
:102E70001046406B01252843114648630846406BC5
:102E8000284001900846416B0220014351631146DE
:102E9000496B014001911046406B08210843506383
:102EA0001046406B0840019000223D493D48FEF726
:102EB000F1FA00223C493D48FEF7ECFA03210520D7
:102EC0000022C9020007FEF7E5FA7F210022C900AF
:102ED0003748FEF7DFFA0720C00202900327039766
:102EE0000024049402A92F48FEF73AFA02960397A9
:102EF000049402A92F48FEF733FA2948029003955B
:102F00000494059402A92748FEF72AFAC6200290E5
:102F10000394049402A92348FEF722FA280302909E
:102F20000397049402A92248FEF71AFAE8030290D4
:102F30000394049402A91E48FEF712FA2E02029688
:102F400003940494052002A90007FEF709FA0296EB
:102F50000394049402A91548FEF702FA124802905D
:102F600003950494059402A91048FEF7F9F9F802B4
:102F70000290039504940594052002A90007FEF72A
:102F8000EFF97F20C000029003950494059402A9F4
:102F90000748FEF7E5F907B0F0BD00000010024059
:102FA00009070000000800507F020000000C0050DC
:102FB000000400500014005010B51348114901607E
:102FC00012494160002181600122C26001614161BA
:102FD0008161C1610162FEF7B7FA002801D0FDF7F7
:102FE00071FD00210848FEF761FA002801D0FDF7C5
:102FF00069FD00210448FEF780FA002801D0FDF7A2
:1030000061FD10BD0058004098040020732160004D
:1030100010B50C480A490160002181607F22C2601E
:10302000FF22026141618161C16101229207026256
:103030004162FFF757F9002801D0FDF743FD10BDAD
:1030400000280040E404002010B588B00024049457
:103050000594069407940194029403941448134928
:1030600001603F21416084607C21C1600461846112
:10307000FFF702FA002801D0FDF724FD012000032C
:10308000049004A90A48FFF745FA002801D0FDF78B
:1030900019FD20200190039401A90548FFF7C4F908
:1030A000002801D0FDF70EFD08B010BD000400405F
:1030B0001005002010B5194817490160E1214902A7
:1030C0004160C90481600021C16001610C2242613C
:1030D0008161C161016241628162FFF7C5FB002825
:1030E00001D0FDF7EFFC00210C48FFF798FB00280A
:1030F00001D0FDF7E7FC00210848FFF76AFB002834
:1031000001D0FDF7DFFC0548FFF742FB002801D0A6
:10311000FDF7D8FC10BD000000380140500500202C
:1031200010B5194817490160E12149024160C904FD
:1031300081600021C16001610C2242618161C16135
:10314000016241628162FFF78FFB002801D0FDF729
:10315000B9FC00210C48FFF762FB002801D0FDF705
:10316000B1FC00210848FFF734FB002801D0FDF72F
:10317000A9FC0548FFF70CFB002801D0FDF7A2FCD5
:1031800010BD000000440040DC05002010B50F48D1
:103190000D490160E12149024160C90481600021BB
:1031A000C16001610C2242618161C16101624162C1
:1031B000816200231A461946FFF748F8002801D01B
:1031C000FDF780FC10BD00000048004068060020AC
:1031D00010B50D480B490160E12149024160C90465
:1031E00081600021C16001610C2242618161C16185
:1031F000016241628162FFF737FB002801D0FDF7D1
:1032000061FC10BD004C0040F40600207047000037
:1032100010B501460548006D002904D048436421DB
:10322000FCF77AFF10BD0020C04310BD68030020EA
:103230008307FF22DB0E9A408907090E9940002878
:103240000BDA0007000F0838830808489B0018189D
:10325000C36993430B43C3617047830804489B00D1
:103260001818036893430B430360704700ED00E0B8
:1032700000E400E0014A506011707047180000201F
:10328000F0B585B006460C4615460F4F012138783B
:103290000843039013E000200421C04301910094EF
:1032A00002900123324603997868FEF7ABF97870F3
:1032B0000420FEF743F82D1F361DB6B2241D002D45
:1032C000E9DC002005B0F0BD18000020FEB507467F
:1032D0000C4615460C4E13E00020C0430421009418
:1032E0000191029001233A4631787068FEF744FA62
:1032F00070700420FEF722F82D1F3F1DBFB2241D61
:10330000002DE9DC0020FEBD180000207047F8B554
:10331000054600242868C168490619D4C16880227E
:103320001143C160FEF7BCF807462E46203609E07F
:10333000FEF7B6F8C11B7D20C000814202D90324EC
:10334000032070722868C068400601D4032CEFD1B6
:103350002046F8BDF8B50025114EF1688022914352
:10336000F160B169044689062034002907DBFFF7C4
:1033700025F8002811D00320607203250DE0B16903
:103380002027B943B161FFF719F8002802D00320C4
:1033900060720325B0693843B0612846F8BD00006B
:1033A00000280040FEB50C2218490020FFF768FFF6
:1033B00016490C220C311046FFF762FF13490C220C
:1033C000A8312420FFF75CFF0024104F0121C9021F
:1033D0000F4A600011528018C1808181A600F51942
:1033E000E86804210190FCF791FFA8610090B859AA
:1033F0000199FCF710FF6862B8590099FCF70BFFC0
:103400002863641CE4B2032CE0D3FEBD5402002008
:103410004C000020F0B595B0242107A8FCF797FEDA
:1034200000200490059006900190029003900027E0
:10343000BE00924814968059FDF729F8044690483A
:103440000D46301813901290406AFCF7E5FF01F02A
:1034500099FB22462B46FCF765FFFDF72CF88749C0
:103460003C31885185488059FDF711F8044612987F
:103470000D46806CFCF7D0FF01F084FB22462B4602
:10348000FCF750FFFDF717F87C493C317418E060F9
:103490007A48301811901090C068FCF7F8FF054684
:1034A00012980E46006BFCF7B7FF01F06BFB2A4643
:1034B0003346FCF737FFFCF7FEFFA06110988069E8
:1034C000FCF7E5FF054612980E46C06BFCF7A4FF1B
:1034D00001F058FB2A463346FCF724FFFCF7EBFFCC
:1034E0000546606267480078C10701D0002F7DD093
:1034F000810701D5012F7DD0400701D5022F79D05A
:103500005E4814993C30A56940582946FCF783FE73
:103510005D49FCF7BDFEE0631398406DFCF76AFF60
:1035200011994E6A3146FCF776FE5749FCF7B0FE1A
:10353000A0641398006EFCF75DFF3146FCF76BFE4C
:103540005149FCF7A5FE60652563E66B049831469A
:10355000FCF708FE0490A56C05982946FCF702FECE
:103560000590616D0698FCF7FDFD069047492846D9
:10357000FCF751FE3146FCF78BFEA0677F1CFFB2C3
:10358000032F00D254E73D4D04993C350C46296683
:10359000059868660699A9663C49FCF73CFE2146F9
:1035A000FCF776FE2F468037786000240126F6056A
:1035B0003248A1003C300D18286EB0420CDB344973
:1035C000FCF766FE3149FCF763FE3249FCF760FE0A
:1035D000E96EFCF7C7FDE866641CE4B2032CE7D390
:1035E00028498878401CC0B2887000E002E0642856
:1035F00025D02CE0214814993C3040582946FCF74E
:103600000AFE2149FCF744FEE0631398406DFCF785
:10361000F1FE11990E6B3146FCF7FDFD1A49FCF7DE
:1036200037FEA0641398006EFCF7E4FE3146FCF709
:10363000F2FD1549FCF72CFE6065256385E7002047
:1036400088700E490C22A8312420FFF73FFE0C4C55
:10365000216FB1420FDBE06EFCF71AFE0E49FCF75A
:10366000DAFD01460D48FCF713FE0949FCF7D3FDCE
:10367000B8600020206715B0F0BD000054020020A3
:10368000600000200000002000401C4600007A443A
:10369000000020410000614500007A43286B6E4E17
:1036A00070470000F8B500243048A2001118FF311F
:1036B00001312E4B8868783B9850D0184D69C56011
:1036C0000E6A86610F6D8764CF6A47628F6B0763EE
:1036D0004F6CC763CF6D47658F6E076600208860AB
:1036E000486108620865C86288634864C86588667E
:1036F0009858FCF78AFE1E49FCF78DFDFCF7B3FED7
:103700001A4967008C39C8532846FCF77EFE1849D1
:10371000FCF781FDFCF7A7FE14498C397D18A881C0
:103720003046FCF772FE1249FCF775FDFCF79BFE74
:10373000E880641CE4B2032CB6D30E480B49426FF8
:103740007839CA66826F0A670022426782670A4830
:10375000603103780B7543784B7583788B75C3782C
:10376000CB75027042708270C270F8BDD800002024
:103770000AD7233BD80100201400002010B5FEF723
:10378000E3F810BD70B598B034210BA8FCF7DFFC4E
:1037900000240794089409940A941C216846FCF7B5
:1037A000D6FC012676023046FEF736F909200B904A
:1037B000F0010C9001201190022512950320139026
:1037C00014941020159040031690000317900BA836
:1037D000FEF728FB002801D0FDF774F907200790B9
:1037E000089509940A94022107A8FEF7F9F9002820
:1037F00001D0FDF767F90748009001940294059401
:1038000006966846FEF72EF9002801D0FDF75AF912
:1038100018B070BD0340020001200249C006886054
:103820007047000000ED00E010B50248FEF7E6FE2C
:1038300010BD000010050020F0B502681A4B1B4CAB
:10384000984201D0A04203D17025AA434D682A4373
:10385000174D184E184F98420AD0A04208D0174C66
:10386000A04205D0A84203D0B04201D0B84204D152
:1038700003242402A243CC6822438024A2434C693F
:10388000224302608A68C2620A688262984205D056
:10389000A84203D0B04201D0B84201D10969016306
:1038A00001214161F0BD0000002C014000040040F6
:1038B0000040014000440140004801400020004019
:1038C00030B58468FF252D02AC431B0213430B4324
:1038D0002343836030BD00008268034B1A400A43D3
:1038E00007210A43826070478FFFCFFF30B5036A1C
:1038F000046A6408640004628469F025AC43120120
:1039000022430A24A3430B438261036230BD30B5D6
:10391000036A1024A34303628369046A0F252D03FD
:10392000AB4312031A43A0239C4309012143826144
:10393000016230BDF0B585B013A106C903920291B2
:1039400013A106C9019200910446416E403400293A
:1039500015D00068816809014D0F8068400F6E46E0
:10396000315C02AF385CC000FCF7C0FB6085785D5D
:10397000715DC000FCF7BAFB208505B0F0BD0120E9
:1039800060852085F9E700000101010307010000BF
:10399000080402040801010110B5018DC90707D010
:1039A00001684A6801235B049A43C36A1A434A6068
:1039B000018D890707D501684A6801231B049A43D2
:1039C000036B1A434A60018D490707D501684A68AD
:1039D00001239B049A43436B1A434A60018D0907F4
:1039E00007D501684A680123DB039A43836B1A43B6
:1039F0004A60018DC90607D501688A6801231B0347
:103A00009A43C36B1A438A60018D890607D5016802
:103A10008A6801235B039A43036C1A438A60018D11
:103A2000490612D501684B6801221205446C934384
:103A300023434B60416C914207D101684A680323DC
:103A40005B059A43836C1A434A60018D090607D5CA
:103A500001684A680123DB04C06C9A4302434A6050
:103A600010BD0000FEB50446254600268035AE6038
:103A7000FDF716FD019020680068134F00070BD575
:103A800001210097002249052046019B00F0C0FA61
:103A9000002801D00320FEBD2068006840070BD538
:103AA00001210097002289052046019B00F0B0FA11
:103AB000002801D00320FEBD20202860686060340B
:103AC00026770020FEBD0000FFFFFF01F8B5044689
:103AD000002100252269A068E369104362691A4346
:103AE0001043626E024320680368F34E3340134371
:103AF00003602068426803231B039A43E3681A4368
:103B00004260A069226A024320688368EB4E33401A
:103B1000134383602068C26A636A120912011A4360
:103B2000C262E74B2068E74A984213D15069800788
:103B3000800F07D0012809D0022805D0032807D01C
:103B4000102029E0002027E0022025E0042023E0C7
:103B5000082021E0DC4B984213D150690C22104020
:103B600007D0042809D0082805D00C2807D0102039
:103B700012E0002010E002200EE004200CE00820FB
:103B80000AE0D24A904201D1002005E0D04A90429A
:103B900001D1002000E010200122D203E369D611F8
:103BA000CC4F93427BD1002814D0022851D0042856
:103BB00076D0082875D0012508461038B84271D84B
:103BC000C44A0846521C104009074A0F02432068A5
:103BD000C26013E2FEF7C4F80246606A002822D0F1
:103BE000012822D0022822D0032822D0042822D063
:103BF000052822D0062822D0072822D0082822D043
:103C0000092822D00A2822D00B2800D001263146CC
:103C10001046FCF76BFA616840004A088018FCF710
:103C200065FA81B2C8E70126F1E70226EFE704262C
:103C3000EDE70626EBE70826E9E70A26E7E70C2684
:103C4000E5E71026E3E72026E1E74026DFE78026C8
:103C5000DDE7606A002826D0012826D0022826D079
:103C6000032826D0042826D0052826D0062826D0CA
:103C7000072826D0082826D0092826D00A2826D0AA
:103C80000B2800D0012631469348FCF72FFA6168D3
:103C900040004A088018FCF729FA81B28CE795E0C9
:103CA00017E055E090E00126EDE70226EBE7042659
:103CB000E9E70626E7E70826E5E70A26E3E70C2614
:103CC000E1E71026DFE72026DDE74026DBE7802658
:103CD000D9E7FEF759F80246606A002822D0012889
:103CE00022D0022822D0032822D0042822D005285E
:103CF00022D0062822D0072822D0082822D009283E
:103D000022D00A2822D00B2800D0012631461046A6
:103D1000FCF7ECF9616840004A088018FCF7E6F906
:103D200081B249E70126F1E70226EFE70426EDE735
:103D30000626EBE70826E9E70A26E7E70C26E5E78B
:103D40001026E3E72026E1E74026DFE78026DDE7CF
:103D5000606A002822D0012822D0022822D003281D
:103D600022D0042822D0052822D0062822D00728D5
:103D700022D0082822D0092822D00A2822D00B28B5
:103D800000D0012631461046FCF7B0F961684000CA
:103D90004A088018FCF7AAF981B20DE70126F1E77D
:103DA0000226EFE70426EDE70626EBE70826E9E71B
:103DB0000A26E7E70C26E5E71026E3E72026E1E7F9
:103DC0004026DFE78026DDE7012517E100280DD03A
:103DD000022849D004286ED008287FD00125084643
:103DE0001038B8427BD82068C16007E1FDF7B8FF02
:103DF0000246606A002821D0012821D0022821D063
:103E0000032821D0042821D0052821D0062821D03C
:103E1000072821D0082821D0092821D00A2821D01C
:103E20000B2800D0012631461046FCF75FF9616887
:103E30004A088018FCF75AF981B2D0E70126F2E768
:103E40000226F0E70426EEE70626ECE70826EAE776
:103E50000A26E8E70C26E6E71026E4E72026E2E754
:103E60004026E0E78026DEE7606A002821D00128AE
:103E700036D0022836D0032836D0042836D005287C
:103E800036D0062836D0072836D0082836D009285C
:103E900036D00A2836D00B2800D0012631460E48ED
:103EA000FCF724F961684A088018FCF71FF981B211
:103EB00095E70126F2E727E0F369FFCFFFF4FF1152
:103EC00000380140401002400044004000480040DB
:103ED000004C0040EFFF00000024F40052E08CE0B2
:103EE0000226DBE70426D9E70626D7E70826D5E72A
:103EF0000A26D3E70C26D1E71026CFE72026CDE708
:103F00004026CBE78026C9E7FDF73EFF0246606A00
:103F1000002821D0012821D0022821D0032821D037
:103F2000042821D0052821D0062821D0072821D017
:103F3000082821D0092821D00A2821D00B2800D018
:103F4000012631461046FCF7D1F861684A0880180E
:103F5000FCF7CCF881B242E70126F2E70226F0E74F
:103F60000426EEE70626ECE70826EAE70A26E8E755
:103F70000C26E6E71026E4E72026E2E74026E0E705
:103F80008026DEE7606A002821D0012821D002289F
:103F900021D0032821D0042821D0052821D00628AB
:103FA00021D0072821D0082821D0092821D00A288B
:103FB00021D00B2800D0012631461046FCF796F898
:103FC00061684A088018FCF791F881B207E701267A
:103FD000F2E70226F0E70426EEE70626ECE70826DD
:103FE000EAE70A26E8E70C26E6E71026E4E72026BB
:103FF000E2E74026E0E78026DEE7012501212046B2
:104000004030418501850020E06620672846F8BDE4
:10401000FFB581B004460E4617460A9D09E0681CAC
:1040200007D0FDF73DFA0499401AA8420CD8002D9C
:104030000AD02068C169304688431AD00020B842AF
:10404000EDD0002005B0F0BD20680168FF22A1324C
:1040500091430160206881684908490081602021FE
:1040600020468030016041600020603420770320CA
:10407000E8E70120E3E70000F8B505461F4E3046AB
:10408000B7680469002F30DC002D2EDDF0680028B1
:1040900008DD401EF0607F21C9052046FCF762F86C
:1040A000306128E0781BFCF7A5F900903846FCF752
:1040B000A1F90099FCF7ECF807460920F0603946B1
:1040C0002046FCF74FF80E4C616FFCF74BF8606729
:1040D0007F21C905A06FFCF745F8A0677F2039460E
:1040E000C005FCF790F8306105E07F21C905204646
:1040F000FCF738F83061B560F8BD00000000002022
:10410000D80100202021020C01D010211046020A03
:1041100001D010460839020901D01046091F820853
:1041200001D01046891E420801D0881E7047081A27
:10413000704702E008C8121F08C1002AFAD1704770
:104140007047002001E001C1121F002AFBD1704717
:1041500001490860704700004400002010B506487F
:10416000FEF7C0F90549092208462430FCF78AFF0A
:1041700003490020087010BD100500201004002025
:104180003000002008B500200090054800780007A6
:1041900005D4002001E0401CC0B21228FBD908BDA4
:1041A00020000020F8B5294C616B206BFBF7DAFF8B
:1041B000A16BFBF7D7FF2649FCF76AF806463146A4
:1041C0003046FCF79FF901D2012700E000270A20C2
:1041D000FCF77AFC02460120FD25FB211D4C97428D
:1041E0002EDD2278D30711D050070ED46E20FCF7B5
:1041F0006BFCFCF7FFF83146FCF77AF905D2207822
:1042000002210843400840002070F8BD930710D5F4
:104210006420FCF759FCFCF7EDF83146FCF772F925
:10422000F3D2207804210843400840002840207041
:10423000F8BD5307FCD40A402A4002432270F8BD5F
:1042400022780A402A4002432270F8BD90020020E2
:10425000000040402000002010B50A4C20784007A4
:1042600009D500F03BFB00F073F900F04FF900F0C6
:1042700029FA00F0EFFA2078800701D500F0A6FABD
:1042800010BD00002000002030B524494A78521C9F
:10429000D2B24A700568224C323DCB1CA54202D3F3
:1042A0001D786D1C1D704568323DA54202D35D78B6
:1042B0006D1C5D7080683238A04202D39878401C33
:1042C0009870502A23D300224A7014481C78007832
:1042D000022C04D91A7001242043087002E040081F
:1042E000400008705878022805D95A7008780224CE
:1042F0002043087003E00878FD2420400870987877
:10430000022805D99A70087804221043087030BD3D
:104310000878FB221040087030BD0000000000202B
:104320006F0F000010B5072318223949394800F0F3
:1043300073F8374C374807231822A11C001D00F0E2
:104340006BF8344807231822211D0C3000F064F864
:10435000304807231822A11D143000F05DF82D48C5
:104360002146072318220831183000F055F8294853
:104370002146072318220A311C3000F04DF8254849
:104380002146072318220C31203000F045F821483F
:104390002146072318220E31243000F03DF81D4835
:1043A0002146072318221031283000F035F819482B
:1043B0002146072318221231343000F02DF8154819
:1043C0002146072318221431383000F025F811480F
:1043D00021460723182216313C3000F01DF80D4805
:1043E00018220723A118403000F016F8094821468A
:1043F000072318221A31443000F00EF805482146F0
:10440000072318221C31483000F006F810BD0000C8
:104410003A03002068030020F0B500240C8000253A
:10442000012705E03E46A6402E43F5B2641CE4B2E7
:104430009C42F7D30068D04028400880F0BD70B59A
:1044400005460E46144631682868FCF75BF808D22A
:1044500021682868FCF756F801D2286870BD2068EA
:1044600070BD21683068FCF74DF801D2306870BD2E
:10447000206870BD70B505460E4614463168286840
:10448000FCF736F808D221682868FCF731F801D229
:10449000286870BD206870BD21683068FCF728F876
:1044A00001D2306870BD206870BD000010B5AE212B
:1044B0000248FEF7DFFEFEF775FF10BD98040020EE
:1044C0000D480C494165816501668166C1660167D9
:1044D00041670A4A82670A4AC26780308160C160C8
:1044E000016141618161C161064901620649416220
:1044F000704700007F196405680300207F90650500
:104500007FC8640580BB0000409C000010B50C49CA
:10451000884213DB0146FBF77EFE01460948FBF7A4
:10452000B7FE7F21C905FBF76EFE0749FBF773FE57
:10453000FBF799FF0549C86000F048FB002010BD5B
:10454000CDCC8C3F0060DB4300007A44200000208B
:10455000F8B51D4E1D4C37463C3F002500950A23FB
:10456000072269461A48FFF757FF68460088FCF79C
:10457000ABFAFBF73FFF216BFBF7BAFF13D368469B
:104580000088FCF7A1FAFBF735FF616BFBF7B0FF82
:1045900009D368460088FCF797FAFBF72BFFA16B5D
:1045A000FBF7A6FF08D27068802108437060F88985
:1045B000401CF8810120F8BD70688021884370603C
:1045C000FD810020F8BD000058030020900200206B
:1045D00080030020F8B51D4E1D4C37463C3F00259A
:1045E00000950A23072269461A48FFF715FF684617
:1045F0000088FEF70DFEFBF7FDFE2168FBF778FF54
:1046000013D368460088FEF703FEFBF7F3FE6168EC
:10461000FBF76EFF09D368460088FEF7F9FDFBF74C
:10462000E9FEA168FBF764FF08D270680421084323
:104630007060B888401CB8800120F8BD7068042103
:1046400088437060BD800020F8BD00005803002042
:10465000900200206C030020F8B5184E184C374625
:104660003C3F32252846FEF7D3FDFBF7C3FE216809
:10467000FBF748FF11D32846FEF7CAFDFBF7BAFE49
:104680006168FBF73FFF08D32846FEF7C1FDFBF743
:10469000B1FEA168FBF736FF08D27068032108431A
:1046A0007060F888401CF8800120F8BD706808210F
:1046B000884370600020F880F8BD00005803002097
:1046C00090020020F8B50A2000900A2307226946CC
:1046D0001948FFF7A1FE194A111F081F15460E467B
:1046E0000746FFF7ACFE04462A4631463846FFF738
:1046F000C1FE01462046FBF786FD1149FBF78BFD05
:104700002146FBF7C5FDFBF795FE69460C880D4970
:1047100001230A465B023C3A844207DD486818439D
:104720004860508A401C50820120F8BD4868984378
:10473000486000205082F8BD88030020C802002095
:104740000000C84258030020F8B5002400940A2352
:10475000072269461948FFF75FFE194A1746083FC6
:104760001646391D3846FFF76AFE05463246391DA2
:104770003846FFF77FFE01462846FBF744FD114906
:10478000FBF749FD2946FBF783FDFBF753FE69461E
:104790000D880D4910230A463C3A854207DD4868DA
:1047A000184348601089401C10810120F8BD4868FA
:1047B0009843486014810020F8BD00007403002075
:1047C000980200200000C84258030020F8B51E4E91
:1047D0001E4C37463C3F002500950A2307226946B8
:1047E0001B48FFF719FE68460088FCF76DF9FBF7D8
:1047F00001FE216BFBF77CFE13D368460088FCF7B3
:1048000063F9FBF7F7FD616BFBF772FE09D36846AE
:104810000088FCF759F9FBF7EDFDA16BFBF768FE8B
:1048200009D201217068C90208437060F88A401CEF
:10483000F8820120F8BD01217068C90288437060C8
:10484000FD820020F8BD00005803002090020020E7
:1048500090030020F8B51E4E1E4C37463C3F002505
:1048600000950A23072269461B48FFF7D5FD6846D5
:104870000088FCF729F9FBF7BDFD216BFBF738FE3B
:1048800013D368460088FCF71FF9FBF7B3FD616B93
:10489000FBF72EFE09D368460088FCF715F9FBF7F5
:1048A000A9FDA16BFBF724FE09D2012170688902E2
:1048B00008437060B88A401CB8820120F8BD01210D
:1048C0007068890288437060BD820020F8BD0000D6
:1048D00058030020900200208C030020F8B51D4EE4
:1048E0001D4C37463C3F002500950A2307226946A8
:1048F0001A48FFF791FD68460088FCF7E5F8FBF7DA
:1049000079FD216BFBF7FEFD13D368460088FCF7A9
:10491000DBF8FBF76FFD616BFBF7F4FD09D368462D
:104920000088FCF7D1F8FBF765FDA16BFBF7EAFD0A
:1049300008D27068402108437060B889401CB88173
:104940000120F8BD7068402188437060BD8100205F
:10495000F8BD000058030020900200207C030020D6
:10496000F8B51D4E1D4C37463C3F002500950A23E7
:10497000072269461A48FFF74FFD68460088FEF790
:1049800047FCFBF737FD2168FBF7BCFD13D36846F6
:104990000088FEF73DFCFBF72DFD6168FBF7B2FDDB
:1049A00009D368460088FEF733FCFBF723FDA168B6
:1049B000FBF7A8FD08D27068022108437060788870
:1049C000401C78800120F8BD706802218843706027
:1049D0007D800020F8BD00005803002090020020D8
:1049E0006803002070B522480078C0073DD0FFF76B
:1049F000B7FF204D0024002805D0AC81002000F036
:104A0000A5F8002070BDFFF7E5FD002806D00120C5
:104A1000A881002000F09AF8002070BDFFF71CFE6E
:104A2000002806D01020A881002000F08FF8002078
:104A300070BDFFF789FE002806D00220A881002063
:104A400000F084F8002070BD012000F07FF8002005
:104A500008493C3942008C52401CC0B20F28F9D39F
:104A60001420E881A881012070BD012070BD0000E4
:104A70002000002058030020FCF76EFFFEF782FEA6
:104A8000FEF7DCF9FEF7C6F9FEF73EF9FEF794FAF9
:104A9000FEF7BEFAFEF70EFBFEF742FBFEF776FBD3
:104AA000FEF796FBFEF7D0FAFFF758FBFFF7FEFC88
:104AB000FFF706FD00F03CF8054C002520780028A3
:104AC000FCD0FEF7A7FC00F005F82570F6E7000023
:104AD0003000002010B5FFF765FBFFF783FF0028CB
:104AE0000BD000F09BF8FFF7B7FB00F049F8FFF799
:104AF00019FCFFF747FB00F083F810BD10B50B4A17
:104B0000094B1178002807D05869012420435861C7
:104B100008200143117010BD5869400840005861D9
:104B2000F7200140117010BD000800502000002047
:104B300000B505481421C18181810020FFF7DEFF07
:104B4000002000F003F800BD5803002010B50B4A08
:104B5000094C08231178002806D060691843606169
:104B600010200143117010BD606998436061EF200F
:104B70000140117010BD000000080050200000200E
:104B800070470000F8B506460C46FBF765FD051EAC
:104B90000F4600D00120014349000B484908411A43
:104BA000C90F0DD0002E01D0012100E000210C43DF
:104BB00061004908401AC00F02D10120FFF7C8FA6E
:104BC00028463946F8BD00000000F07F10B50A4CB9
:104BD0002078C0070ED1E06800280BD0FBF715FC49
:104BE00001460648FBF754FB01466068FBF7BAFA3A
:104BF0006060A06010BD00002000002000401C4646
:104C000005480078C00605D5002001E0401CC0B270
:104C10001228FBD9704700002000002010B506487C
:104C20000078400707D5FFF79BFEFFF7D3FCFFF79F
:104C300013FDFFF789FD10BD2000002000000000DB
:104C40000000000000000000000000000000000064
:104C50000000000000000000000000000100000053
:104C60000200000003000000040000000600000035
:104C7000070000000800000009000000000000001C
:104C80000000000000000000000000000100000023
:104C9000020000000300000004000000BC4C0008FB
:104CA000000000204C00000032410008084D0008C0
:104CB0004C000020940B000042410008000000005E
:104CC00000000000000000000100000000000000E3
:104CD00000000000000000000000000001000000D3
:104CE00000000000000000000100000000000000C3
:104CF0000400000001000000000000000024F40097
:084D0000000000001500000096
:04000005080000B936
:00000001FF
